:1000000007C1000036C1000034C1000032C1000049
:1000100030C100002EC100002CC100002AC1000028
:1000200028C1000026C1000024C1000022C1000038
:1000300020C100001EC100001CC100001AC1000048
:1000400018C1000016C1000014C1000012C1000058
:1000500010C100000EC100000CC100000C94771408
:1000600008C100000C94CB100C94A21002C1000037
:1000700000C10000FEC00000FCC00000FAC000008B
:10008000F8C00000F6C00000F4C00000F2C000009C
:100090000C9479100C945010ECC00000EAC00000E1
:1000A000E8C00000E6C00000E4C00000E2C00000BC
:1000B000E0C00000DEC00000DCC00000DAC00000CC
:1000C000D8C00000D6C00000D4C00000D2C00000DC
:1000D000D0C00000CEC00000CCC00000CAC00000EC
:1000E000C8C000005513581347134B134F138F13F9
:1000F0005C13601366136A136E13741378137C1306
:100100008F13821386138A13000022002500280013
:100110002B002E003100340002010000050108010F
:100120000B0100002100240027002A002D003000D0
:10013000330001010000040107010A01050505055E
:10014000070508080808020202020A0A080804044F
:10015000040401010101010101010303030303037D
:100160000303040707070C0C0C0C0C0C0C0C02020C
:10017000020206060606060606060B0B0B0B0B0B09
:100180000B0B010210202008081020401020408096
:10019000020102010804020101020408102040804B
:1001A00080402010080402018004020180402010D9
:1001B0000804020108040201010204081020408022
:1001C000010204081020408000000A0B02090C0DF7
:1001D0000E080703040100000000000000000000FA
:1001E000000000000000000000000000000000000F
:1001F00000000000121110000000000000000000CC
:100200000000000000000000000000000000C9180D
:1002100011241FBECFEFD1E2DEBFCDBF00E00CBF87
:1002200013E0A0E0B2E0EEECF8E300E00BBF02C0A8
:1002300007900D92A632B107D9F725E0A6E2B3E008
:1002400001C01D92A033B207E1F711E0C8E0D1E090
:1002500000E006C021970109802FFE010E9472195B
:10026000C730D10780E00807A9F70E94C1140C9499
:10027000651CC6CEEF92FF920F931F93CF93DF932F
:10028000EC017B018A01BA010E94740F2881398137
:1002900081110DC02115310519F0C9010E94161AEE
:1002A000198218821D821C821B821A8206C01D833D
:1002B0000C83B701C9010E94AC1BCE01DF91CF9125
:1002C0001F910F91FF90EF9008950E94921B2C9A1E
:1002D00008952C9808958EBD00000DB407FEFDCF43
:1002E0008EB508952F923F924F925F926F927F92B8
:1002F0008F929F92AF92BF92DF92EF92FF920F93F5
:100300001F93CF93DF93CDB7DEB7E4970FB6F89482
:10031000DEBF0FBECDBF7C011A012B0139010E9447
:100320006B144B015C018701095B1F4FC8010E94E0
:10033000EC0E18161906A4F00E946B14DC01CB0118
:1003400088199909AA09BB09281639064A065B06C5
:10035000F0F062E370E080E090E00E94D512E6CF1A
:1003600042E250E0BE016F5F7F4FC8010E94A40EC1
:100370008981823031F4F801858996898334910529
:1003800041F0D12CC8010E94630E8D2D5FC18FEF0B
:100390005DC16D817E818F8198850E947A194B01A4
:1003A0005C01F301608371838283938346E050E0B4
:1003B000B701685F7F4FCE014D960E94961B892B37
:1003C00099F4F70180819181A281B3818816990601
:1003D000AA06BB0648F084819581A681B78188155D
:1003E0009905AA05BB0528F4C8010E94630E80E0A8
:1003F0002DC189899A89AB89BC89F701868797873E
:10040000A08BB18B8EECA82EB12CC8010E94C30E1C
:10041000F1E0AF1AB108C9F7D12CC70182969AA7AB
:1004200089A7F701B696FCA7EBA708969EA78DA70C
:100430003C974F018E9698AB8FA73897FAABE9ABF4
:100440001701F6E12F0E311CCA979CAB8BABF8015C
:10045000818D928D181619060CF094CFC8010E9458
:10046000C30E8333910509F4CBC0FCF481309105B0
:10047000C9F11CF4892B59F3DDC083309105D1F10A
:10048000069709F0D7C0C8010E94C30E5C0144E082
:1004900050E06BA97CA9C8010E94A40E412C512CEC
:1004A000BB24F4E0AF1AB10840C08A33910509F4C7
:1004B0007BC03CF48533910569F0C69709F440C0D0
:1004C000B9C08B33910509F485C08F3F910509F4BC
:1004D000BECFB0C0C8010E94C30EC8010E94C30EA7
:1004E000D82EB5CFC8010E94C30E44E050E069A9E0
:1004F0007AA93AC0C8010E94C30E5C0144E050E0F2
:10050000B101C8010E94A40E412C512CBB2494E0DF
:10051000A91AB1084A145B040CF099CFC8010E94D3
:10052000C30EEFEF4E1A5E0AF5CF4A145B040CF0CF
:100530008ECFC8010E94C30E8FEF481A580AF5CF1C
:10054000C8010E94C30EB82EF701828D811110C020
:10055000838D81110DC0848D81110AC0858D81111B
:1005600007C044E050E0B401C8010E94A40E6FCF60
:10057000EFA5F8A94080518062807380B401CE015C
:1005800083960E9440108DA19EA1AFA1B8A58415AD
:100590009505A605B70529F3BB2009F458CFC80176
:1005A0000E94C30EBA94F8CFC8010E94C30E44E063
:1005B00050E06BA57CA5C8010E94A40EF70166A1BE
:1005C00077A180A591A50E947A1966A377A380A739
:1005D00091A73DCFC8010E94C30E44E050E06DA535
:1005E0007EA5C8010E94A40EF70162A573A584A58B
:1005F00095A50E947A1962A773A784A795A727CF0C
:10060000C8010E94C30E44E050E069A57AA5C80164
:100610000E94A40EF70162A173A184A195A10E947A
:100620007A1962A373A384A395A366A777A780AB67
:1006300091AB0DCFC8010E94C30EB82EBB2009F4A8
:1006400006CFC8010E94C30EBA94F8CFE4960FB645
:10065000F894DEBF0FBECDBFDF91CF911F910F91F8
:10066000FF90EF90DF90BF90AF909F908F907F9022
:100670006F905F904F903F902F9008957F928F9250
:100680009F92AF92BF92CF92DF92EF92FF920F9321
:100690001F93CF93DF93CDB7DEB7A6970FB6F8942D
:1006A000DEBF0FBECDBF8C01762E942E852E20E2AC
:1006B000B22ECE0101967C01FC012B2D11922A95C0
:1006C000E9F78CED92E09AA389A38FEF8BA38CA31B
:1006D0008DA38EA3680187E4C80ED11C43E450E0CB
:1006E000BE016F5D7F4FC601C3D6019609F4BBC042
:1006F00081E089838A8386E0A82EAB821C82F80180
:1007000064817581868197810E947A196D837E83C9
:100710008F83988789869A8680E890E09C878B876C
:100720004CE150E0B701C6010E943F0FF7012B2DAD
:1007300011922A95E9F7480188E0880E911CF4018E
:10074000D70101900D92AA94E1F740E150E0B70182
:10075000C6010E943F0FF7011192BA94E9F796E0A3
:10076000A92EB12C40E250E0B701C6010E943F0F14
:10077000F1E0AF1AB108B1F783E6898392E89A8372
:1007800093E59B838C8385E38D8381E08E837F82D9
:100790009DE3988797E099878A8786E0F401DE01D8
:1007A0001B9601900D928A95E1F78CE0898B8A8BDC
:1007B0006FE173E0CE0143960E94AC1BF8014385C4
:1007C000BE01675E7F4FC801C7D5F8014485BE01F1
:1007D000655E7F4FC801C0D5F8014585BE01635EE7
:1007E0007F4FC801B9D54EE150E0B701C6010E9464
:1007F0003F0FF3E07F121EC082E3898384E08A8387
:10080000F80196859B8397859C8390899D83918928
:100810009E8396E39F838887828D8987838D8A87CD
:10082000848D8B87858D8C874CE050E0B701C601A5
:100830000E943F0F87E3898386E08A8391E09B8350
:1008400093E09C838D838FE08E838AE38F838BE399
:1008500088878FEF898749E050E0B701C6010E9481
:100860003F0FC601D7D5A6960FB6F894DEBF0FBED0
:10087000CDBFDF91CF911F910F91FF90EF90DF904F
:10088000CF90BF90AF909F908F907F900895CF9220
:10089000DF92EF92FF920F931F93CF93DF93EC01C0
:1008A0007A018B016C01C40ED51ECC15DD0579F0E3
:1008B00010DD8FE010DD8D2F0EDD8C2F0CDD2196ED
:1008C00080E009DDF80181938F0101DDEECFC701E2
:1008D000DF91CF911F910F91FF90EF90DF90CF901C
:1008E0000895CF92DF92EF92FF920F931F93CF93D1
:1008F000DF93EC017A018B016C01C40ED51ECC157F
:10090000DD0571F0E6DC80EFE6DC8D2FE4DC8C2F7A
:10091000E2DC2196F80181918F01DDDCD8DCEFCF9C
:10092000C701DF91CF911F910F91FF90EF90DF9062
:10093000CF9008951F93CF93DF931F921F92CDB74F
:10094000DEB7182F6A839983C4DC80EFC4DC9981F9
:10095000892FC1DC812FBFDC6A81862FBCDCB7DC2C
:1009600081E00F900F90DF91CF911F9108959B012F
:1009700090E00496982F8827642F820F931FDACF78
:100980000F931F93CF93DF931F92CDB7DEB790E005
:100990000496982F88278C01060F171F9ADC8FE08A
:1009A0009ADC812F98DC802F96DC80E094DC8983B0
:1009B0008EDC89810F90DF91CF911F910F91089567
:1009C0001F93CF93DF93182F66E270E0D9DFC82F13
:1009D000D0E067E270E0812FD3DFDC2FCC279E01CF
:1009E000282BC901DF91CF911F9108951F93CF93B9
:1009F000DF93182F60E270E0C3DFC82FD0E061E220
:100A000070E0812FBDDFDC2FCC279E01282BC90190
:100A1000DF91CF911F91089508958CBD9DBD0895DC
:100A20001F93CF93DF931F921F92CDB7DEB7182F7E
:100A300080E590E069837A83F0DF21E041E050E0D7
:100A400069817A81812F0E94A81181E090E00F9046
:100A50000F90DF91CF911F910895FF920F931F93F5
:100A6000CF93DF93F82E80E590E0D7DFC0E0D0E0B1
:100A70008F2DA6DF8C01892B19F08F2DA1DFEC01C2
:100A8000C017D107A9F7CE01DF91CF911F910F9128
:100A9000FF900895AF92BF92CF92DF92EF92FF92B4
:100AA0001F93CF93DF93182F5B017A0180E590E0CD
:100AB000B4DFC0E0D0E0812F83DF6C01892B19F017
:100AC000812F7EDFEC01CC15DD05A9F7209791F48D
:100AD00063E070E0812F54DF8431F1F08823E1F08E
:100AE000C1E0D0E08C3111F4C0E0D0E0D195C195E7
:100AF000D10912C0EC16FD060CF4E7011C161D0608
:100B00005CF420E0AE01B501812F0E94A81160E4E1
:100B100070E0812F0E945911CE01DF91CF911F917A
:100B2000FF90EF90DF90CF90BF90AF900895CF935C
:100B3000C82F80E590E071DF60E170E08C2F0E94AB
:100B400059114FEF62E070E08C2FCF9110CFCF930F
:100B5000C82F80E590E061DF63E070E08C2FCF91DB
:100B60000FCFCF93DF931F92CDB7DEB76983DC0140
:100B7000ED91FC910280F381E02D41E050E0BE0157
:100B80006F5F7F4F19950F90DF91CF910895DC0132
:100B9000ED91FC91048CF58DE02D199591E089275C
:100BA0000895862F089581E0862708958F929F9259
:100BB000AF92BF92CF92DF92EF92FF920F931F936B
:100BC000CF93DF936C015B017A01FC01C485C430D3
:100BD00041F481E090E0F6019383828380E090E02D
:100BE0004BC08A014130584010F000E018E080E529
:100BF00090E013DF8C2F0E9475124C0163E070E0CF
:100C00008C2FBEDED82F08DFD73111F0DC3121F474
:100C10008016910660F302C000E010E080E590E0ED
:100C2000FCDE9801A50160E070E08C2F0E9410129C
:100C300060E270E08C2F0E94591162E070E08C2F0E
:100C40009FDE84FD0FC063E070E08C2F99DE811180
:100C500004C0E2DE8C2F6BDFBCCFDEDE80E590E0EF
:100C6000DCDEEBCF40E162E070E08C2F80DED4DE92
:100C7000012B09F4AECFC701DF91CF911F910F91E6
:100C8000FF90EF90DF90CF90BF90AF909F908F90AC
:100C90000895CF92DF92FF920F931F93CF93DF932C
:100CA0008C01EB016A01FC018485843009F075C078
:100CB000F12C8F2D4CDF811103C0F801F48607C0A1
:100CC0008B7F8831D1F3F394F4E0FF12F2CFF80177
:100CD0008485843009F461C020910C0230910D02AA
:100CE0002F5F3F4F11F420E030EC30930D02209342
:100CF0000C0240910C0250910D0261E00E946911BA
:100D0000F801F4848A818F3F51F48B818F3F91F4F5
:100D10008C818F3F79F48D818F3F61F43BC08111CD
:100D200009C08B81811106C08C81811103C08D8126
:100D3000882381F1C114D10469F180E590E06DDE72
:100D4000BE016E5F7F4F8F2D90E0982F882744E083
:100D500050E0845F9B4FC5DD4D2D60E170E08F2D2D
:100D600006DE4C2D61E170E08F2D01DE64E070E065
:100D70008F2D0E94591150DEC801AFD4873181F008
:100D800061E070E080E090E00E94D512C801A5D437
:100D90008111F2CF84E0F801848780E090E002C006
:100DA00081E090E0DF91CF911F910F91FF90DF9054
:100DB000CF90089544E050E0BC018FE090E091CDE9
:100DC0002F923F924F925F926F927F928F929F925B
:100DD000AF92BF92CF92DF92EF92FF920F931F9349
:100DE000CF93DF93CDB7DEB765970FB6F894DEBF2C
:100DF0000FBECDBF7C016B014A01FB01DB018D9170
:100E00008111FDCF20E030E080E090E05AE0419198
:100E10004423F9F0843091054CF54E3269F42F3FAC
:100E2000310509F01CF5D401A80FB91F12962C93B7
:100E3000019620E030E0EBCF529FB001539F700D40
:100E40001124242F440F330B20533109260F371F51
:100E5000DECF2F3F310509F04CF48430910534F496
:100E6000F401E80FF91F228381E020C0F7014281DD
:100E70005381648175818091EC049091ED04A0917F
:100E8000EE04B091EF04481759076A077B0709F48D
:100E900016C10E946B148701085F1F4F6F70772780
:100EA0007C5FC801AAD3813019F080E090E0C9C10D
:100EB0008CED92E09A838983F70182819381A481EA
:100EC000B5818B839C83AD83BE8345E350E0BE0137
:100ED0006F5F7F4FC801CCD2892B19F4C12CD12C64
:100EE000EAC00E946B14F7017783668342E050E00A
:100EF000B7016A5F7F4FC801C2D781E090E09A8353
:100F0000898342E050E0BE016F5F7F4FC801B7D7D1
:100F100080E091E09A83898342E050E0BE016F5FF8
:100F20007F4FC801ACD71A82198242E050E0BE015F
:100F30006F5F7F4FC801A3D742E050E0BE016F5FF3
:100F40007F4FC8019CD742E050E0BE016F5F7F4FEA
:100F5000C80195D72601F2018081882319F1C601C5
:100F60005C01FC0120810196211114C0250135018D
:100F70006C187D081614170484F46D8641E050E067
:100F8000BE01635F7F4FC8017AD7A301B601C801D4
:100F900076D703C02E3221F7E9CF6501FFEFCF1AD4
:100FA000DF0AD9CF1D8641E050E0BE01635F7F4F6D
:100FB000C80165D7C12CDD24D394DA82C98242E00E
:100FC00050E0BE016F5F7F4FC80159D7DA82C982F6
:100FD00042E050E0BE016F5F7F4FC80150D7C801AB
:100FE00019D2892B09F47ACF83E0A82EB12C3401D1
:100FF000F2E06F0E711C0E946B141B012C01C801E2
:10100000EBD618161906A4F00E946B14DC01CB0174
:1010100082199309A409B50989389341A105B1053D
:10102000D0F462E370E080E090E00E94D512E7CF58
:10103000F7014281538164817581818D928DA38DE9
:10104000B48D481759076A077B0741F4858D968D43
:10105000C59721F406C02FEF3FEF23C02EEF3FEFDF
:1010600020C0F70181A192A10C970CF4E7C04CE0DD
:1010700050E0BE016F5F7F4FC80166D68B819C81B7
:101080009827892798279A8B898BF7014681578162
:1010900029813A8142175307A9F0C80114D62CEFD1
:1010A0003FEF6901F1E0AF1AB10829F02FEFC21646
:1010B000D20609F4A0CFC8018CD2C601C2C08EEFFF
:1010C0009FEFBFC097FFE9CF8F709270892B29F0F7
:1010D000C801F9D52BEF3FEFE4CFCF80D884DC24D3
:1010E000CD24DC24C114D10429F4C801ECD52AEFA5
:1010F0003FEFD7CF812C912C8D819E819827892716
:1011000098278816990610F541E050E0BE01635F0C
:101110007F4FC80119D68D8581110FC08D85811132
:10112000F3CFC80130D6C8012ED6C8012CD6C801CD
:101130002AD6FFEF8F1A9F0ADFCF8D859FEF980F7A
:101140009D87882359F3C8011ED6F7CF812C912C97
:1011500041E050E0BE016D5E7F4FC801F5D58B893F
:10116000982F907C59F4882361F08B899FEF980F1A
:101170009B8B882331F0C80106D6F7CFC80103D670
:101180001B8A8B898111E4CF42E050E0BE01615F90
:101190007F4FC801D9D542E050E0BE01635F7F4F69
:1011A000C801D2D5C801EFD5C801EDD5C801EBD52E
:1011B000C801E9D542E050E0BE016F5E7F4FC80133
:1011C000C3D58F85988981159140E1F42D853E85A1
:1011D00032272327322721303105A1F489899A89C2
:1011E0008115944029F0C8016ED527EF3FEF59CF04
:1011F00044E050E0B301C8012C8B3D8BA5D52C8970
:101200003D894FCF412C512C89899A89982789276C
:1012100098274816590630F4C801B5D58FEF481AFB
:10122000580AF2CFEFEF8E1A9E0A8C149D0409F033
:101230008FCFC80148D526EF3FEF33CF2DEF3FEFDB
:1012400030CF65960FB6F894DEBF0FBECDBFDF91ED
:10125000CF911F910F91FF90EF90DF90CF90BF90B3
:10126000AF909F908F907F906F905F904F903F9046
:101270002F900895CF92DF92EF92FF920F931F93DA
:10128000CF93DF93CDB7DEB7AF970FB6F894DEBF3D
:101290000FBECDBF7C016A010CED12E01A830983F9
:1012A0001C861B8688EE93E0A0E0B0E08D879E87C9
:1012B000AF87B88B86E492E09A87898784E08D8B2C
:1012C000198F088F1A8E1B8E1C8E1D8E1DA30CA3CA
:1012D0001EA21FA218A619A68091E4049091E5040D
:1012E000A091E604B091E7048CA79DA7AEA7BFA785
:1012F0008B839C83AD83BE8318861F82AE014C5DB9
:101300005F4FCE0101965CDD81309105B1F4D701CC
:10131000ED91FC910484F585E02D1BA70AA78EA111
:101320009FA1A8A5B9A58CA79DA7AEA7BFA7A601F9
:10133000BE01665D7F4FC7011995AF960FB6F89451
:10134000DEBF0FBECDBFDF91CF911F910F91FF90F8
:10135000EF90DF90CF90089580E3FB018083329679
:10136000842F82958F7090E1899F401911244A3013
:1013700014F4405D01C0495C4293482F8111F0CFC5
:101380000895FC01818D928D0895FC0185899689CF
:1013900008952CED32E0FC0131832083FB0141896B
:1013A000528963897489FC01428353836483758302
:1013B0000895DC01ED91FC91008CF18DE02D1994E4
:1013C000CF93DF931F92CDB7DEB76983DC01ED9138
:1013D000FC910280F381E02D41E050E0BE016F5F9F
:1013E0007F4F19950F90DF91CF910895FC0194855F
:1013F000FB018485981303C081E0943009F480E0F8
:10140000089521E0FC018485843009F420E0822FD6
:1014100008950895CF93FC01C48580E590E0FDDA3E
:1014200060E270E08C2F45D762E070E08C2FA8DA84
:1014300084FD14C062E070E08C2FA2DA83FF09C043
:1014400048E162E070E08C2F92DAE6DA80E090E02A
:101450000DC0E2DA80E590E0E0DAE6CF40E162E05C
:1014600070E08C2F84DAD8DA81E090E0CF91089593
:10147000EF92FF921F93CF93DF93EB017A01FC0170
:10148000108E178A14858A81811109C08B81811180
:1014900006C08C81811103C08D81882301F1E11484
:1014A000F104E9F080E590E0B8DABE016E5F7F4FAD
:1014B000812F90E0982F882744E050E0845F9B4F75
:1014C00010DA4F2D60E170E0812F51DA4E2D61E18D
:1014D00070E0812F4CDAA0DA81E090E002C080E079
:1014E00090E0DF91CF911F91FF90EF900895CF9200
:1014F000DF92EF92FF920F931F93CF93DF93CDB7BD
:10150000DEB7AF970FB6F894DEBF0FBECDBF7C013C
:101510006A010CED12E01A8309831C861B8688EE93
:1015200093E0A0E0B0E08D879E87AF87B88B86E41C
:1015300092E09A87898784E08D8B198F088F1A8EA5
:101540001B8E1C8E1D8E1DA30CA31EA21FA218A6EF
:1015500019A68091E4049091E504A091E604B0916D
:10156000E7048CA79DA7AEA7BFA78B839C83AD8301
:10157000BE8318861F82AE014C5D5F4FCE0101967F
:101580001FDC81309105B1F4D701ED91FC91008809
:10159000F189E02D1BA70AA78EA19FA1A8A5B9A537
:1015A0008CA79DA7AEA7BFA7A601BE01665D7F4F12
:1015B000C7011995AF960FB6F894DEBF0FBECDBF29
:1015C000DF91CF911F910F91FF90EF90DF90CF901F
:1015D0000895CF93DF93EC018C85843059F0A7DA1E
:1015E000EC85F0E0EE0FFF1FEA5DFC4F11821082E8
:1015F00084E08C87DF91CF910895EF92FF921F9343
:10160000CF93DF93FC012485243011F080E019C0D2
:101610007B01EC0110E0812F9ADA811102C01C8756
:1016200005C08831E1F31F5F1430A9F78C85843041
:1016300069F3FE86ED861A8E198EA70162E049D6FF
:1016400081E0DF91CF911F91FF90EF9008950F936C
:101650001F93CF93DF931F92CDB7DEB78C01DC01D0
:10166000ED91FC910480F581E02D1995892B49F0CD
:10167000BE016F5F7F4FF8018485D2D9898190E0E8
:1016800002C08FEF9FEF0F90DF91CF911F910F91CD
:101690000895FC018485FEC9CF93DF931F92CDB7D7
:1016A000DEB741E050E0BE016F5F7F4FFC018485F3
:1016B000F1D9181619061CF4898190E002C08FEF49
:1016C0009FEF0F90DF91CF910895FC0184858430C6
:1016D00009F0C3C980E090E00895FC01848584305E
:1016E00009F035CA80E008958F929F92AF92BF9221
:1016F000CF92DF92EF92FF920F931F93CF93DF93DE
:10170000CDB7DEB72D970FB6F894DEBF0FBECDBFB5
:101710007C0100E010E038EE832E33E0932EA12C04
:10172000B12C46E8C42E42E0D42E1C821B828D824E
:101730009E82AF82B886DA82C9820D87CE01019679
:10174000CCDF81111FC0F7014481558161E0802FFA
:10175000C0D580E590E061D963E070E0802F10D9BA
:10176000833121F462E070E0802FA3D555D9F701D1
:1017700084819581000F111FF801EA5DFC4F918370
:10178000808305C00F5F1F4F0430110571F62D9641
:101790000FB6F894DEBF0FBECDBFDF91CF911F9182
:1017A0000F91FF90EF90DF90CF90BF90AF909F9000
:1017B0008F900895CF93DF93FC0124852430C9F0E6
:1017C000EC018BDF843181F0882371F0883161F086
:1017D0008C3161F4E881F9810480F581E02DCE013E
:1017E000199521E0892B19F420E001C021E0822F16
:1017F00001C080E0DF91CF910895CF92DF92EF9208
:10180000FF921F93CF93DF93FC011485143079F17D
:10181000EC0180E590E001D968E070E0812F49D5C6
:10182000FBD80E946B146B017C01CE0156DF88232C
:10183000A1F061E070E080E090E0B7D60E946B1408
:10184000DC01CB018C199D09AE09BF09883E93408C
:10185000A105B10550F38C856AD9EC85F0E0EE0F57
:10186000FF1FEA5DFC4F1182108284E08C87DF91BC
:10187000CF911F91FF90EF90DF90CF9008954F92FE
:101880005F926F927F928F929F92AF92BF92CF9210
:10189000DF92EF92FF921F93CF93DF93CDB7DEB726
:1018A0002D970FB6F894DEBF0FBECDBF7C0196E238
:1018B000A92E93E0B92E10E0C12CD12C28EE422E97
:1018C00023E0522E612C712C36E8832E32E0932EC9
:1018D0001C821B824D825E826F8278869A82898208
:1018E0001D87D5012D913D915D01F7018481958181
:1018F0002817390799F4CE010196EFDE843159F0AB
:10190000CE010196EADE8C3149F4CE010196DDDE8E
:10191000892B91F003C0CC24C394D12C1F5F1430C9
:10192000B9F6CD2869F4D701ED91FC910480F581D9
:10193000E02DC701199504C0CE0101965EDFEECF00
:101940002D960FB6F894DEBF0FBECDBFDF91CF91BD
:101950001F91FF90EF90DF90CF90BF90AF909F903E
:101960008F907F906F905F904F9008952F923F924D
:101970004F925F926F927F928F929F92AF92BF929F
:10198000CF92DF92EF92FF920F931F93CF93DF934B
:10199000CDB7DEB72E970FB6F894DEBF0FBECDBF22
:1019A0007C016B015A016BDF06E213E020E0612C41
:1019B000712C88EE282E83E0382E412C512C96E88D
:1019C000892E92E0992E1C821B822D823E824F82AC
:1019D00058869A8289822D87F801419151918F0111
:1019E000F701848195814817590739F4CE01019692
:1019F0002E8773DE2E858731E9F02F5F243019F7AB
:101A0000C3012E960FB6F894DEBF0FBECDBFDF9197
:101A1000CF911F910F91FF90EF90DF90CF90BF90EB
:101A2000AF909F908F907F906F905F904F903F907E
:101A30002F900895A501B601CE0101962E87B6D844
:101A4000680E791E2E85D9CFCF92DF92EF92FF924A
:101A50000F931F93CF93DF936C017A018B01C0E04A
:101A6000D0E0CE15DF0589F0D8016D918D01D6014A
:101A7000ED91FC910190F081E02DC6011995892B23
:101A800011F47E0102C02196ECCFC701DF91CF9106
:101A90001F910F91FF90EF90DF90CF900895FC0180
:101AA000A089B1898C91A689B78982FD0FC09C91CC
:101AB000818D8F5F8F73228D821749F0218DDF0119
:101AC000A20FB11D5D969C93818F08958C9108950E
:101AD000FC01918D828D981761F0828DDF01A80F36
:101AE000B11D5D968C91928D9F5F9F73928F90E058
:101AF00008958FEF9FEF0895FC01918D828D9817C7
:101B000031F0828DE80FF11D858D90E008958FEF03
:101B10009FEF0895FC01918D228D892F90E0805CCC
:101B20009F4F821B91098F739927089588EA93E04C
:101B3000F1DF21E0892B09F420E0822F089585E46C
:101B400094E0E8DF21E0892B09F420E0822F08955A
:101B5000FC01848DDF01A80FB11DA35ABF4F2C914A
:101B6000848D90E001968F739927848FA689B78919
:101B70002C93A089B1898C9180648C93938D848DF2
:101B8000981306C00288F389E02D80818F7D8083C1
:101B90000895EF92FF920F931F93CF93DF93EC0181
:101BA00081E0888F9B8D8C8D981305C0E889F98919
:101BB000808185FD23C0F62E0B8D10E00F5F1F4F37
:101BC0000F731127E02E8C8DE8120BC00FB607FCA7
:101BD000FACFE889F989808185FFF5CFCE01B8DF9A
:101BE000F2CF8B8DFE01E80FF11DE35AFF4FF0821B
:101BF0000B8FEA89FB898081806207C0EE89FF89AB
:101C00006083E889F98980818064808381E090E045
:101C1000DF91CF911F910F91FF90EF900895CF9397
:101C2000DF93EC01888D8823C1F0EA89FB898081EC
:101C300085FD05C0A889B9898C9186FD0EC00FB6B7
:101C400007FCF5CF808185FFF2CFA889B9898C91F7
:101C500085FFEDCFCE017CDFE8CFDF91CF910895F6
:101C600080E090E0892B19F06ADF811120C080E0CC
:101C700090E0892B19F05ADF81111CC080E090E0C0
:101C8000892B41F080E090E0892B21F00E94000038
:101C9000811113C080E090E0892BA1F080E090E0FA
:101CA000892B81F00E94000081110AC008950E94D2
:101CB0000000DDCF0E940000E1CF0E940000EACFCB
:101CC0000C9400000895CF93DF93EC01898D9A8DD9
:101CD000892B41F0E881F9810680F781E02DCE0162
:101CE0001995F4CFDF91CF910895CF93DF931F9291
:101CF000CDB7DEB76983DC01ED91FC910280F38101
:101D0000E02D41E050E0BE016F5F7F4F19950F90CD
:101D1000DF91CF910895CF93DF931F92CDB7DEB7B8
:101D2000FC01218D328D232B49F0BE016F5F7F4F67
:101D300084850E941005898190E002C08FEF9FEF9B
:101D40000F90DF91CF910895CF93DF93FC01218D08
:101D5000328D2115310519F48FEF9FEF11C0EC0181
:101D60004217530708F0A9018C850E944A051816EE
:101D7000190694F7298D3A8D281B390B3A8F298F34
:101D8000DF91CF9108950F931F93CF93DF931F920D
:101D9000CDB7DEB7FC01218D328D232B61F08C0194
:101DA00041E050E0BE016F5F7F4F84850E944A058D
:101DB000181619061CF08FEF9FEF08C0F801818DEF
:101DC000928D0197928F818F898190E00F90DF91A2
:101DD000CF911F910F9108950F931F93CF93DF938E
:101DE000CDB7DEB728970FB6F894DEBF0FBECDBFD4
:101DF0008C01DC01ED91FC910284F385E02D1995B5
:101E0000F80184850E942D05181619065CF548E036
:101E100050E0BE016F5F7F4FD8011C968C910E94ED
:101E20004A059C0118161906DCF489819A81AB8158
:101E3000BC81F801818B928BA38BB48B8D8190E058
:101E4000982F88272E81820F911D968B858B2F814D
:101E500030E0322F22278885280F311D328F218FC5
:101E6000C90102C080E090E028960FB6F894DEBF6A
:101E70000FBECDBFDF91CF911F910F910895AF920B
:101E8000BF92CF92DF92FF920F931F93CF93DF9376
:101E90008C015B01EA01FC01C788D08CF48480E5E9
:101EA00090E00E940D058F2D20D38C179D0718F40C
:101EB0008F2D1BD3EC019E01A501B6018F2DB0D251
:101EC0000E940C05F8018789908D8C0F9D1F908FC3
:101ED000878BCE01DF91CF911F910F91FF90DF9003
:101EE000CF90BF90AF9008950F931F93CF93DF9340
:101EF000EC0188819981009729F02A813B8126177E
:101F0000370788F48B016F5F7F4F0E94AE1A0097EE
:101F100061F0998388831B830A832C813D81232B65
:101F200011F4FC01108281E001C080E0DF91CF91CB
:101F30001F910F9108956115710579F0FB010190D2
:101F40000020E9F73197AF01461B570BDC01ED91FB
:101F5000FC910280F381E02D199480E090E00895D7
:101F60004F925F926F927F92EF92FF920F931F9327
:101F7000CF93DF93CDB7DEB7A1970FB6F894DEBF4E
:101F80000FBECDBF7C01FA01CB0119A2223008F4AB
:101F90002AE08E010F5D1F4F422E512C612C712CB7
:101FA000BF01A30192010E94341CF901CA01015032
:101FB00011096A3014F4605D01C0695CD8016C934A
:101FC000232B242B252B61F7B801C701B4DFA19681
:101FD0000FB6F894DEBF0FBECDBFDF91CF911F913A
:101FE0000F91FF90EF907F906F905F904F900895CA
:101FF0008F929F92AF92BF92CF92DF92EF92FF9219
:102000000F931F93CF93DF937C01EB016C0182E070
:10201000C80ED11C4701E5E08E0E911C00E010E0D7
:10202000F60141916F0150E060E070E02AE0CE01DE
:1020300097DF5C01E881F9810190F081E02D6EE28B
:10204000CE0119958A0D9B1D080F191FC814D904BC
:1020500039F7F701458150E060E070E02AE0CE01F9
:102060007FDF800F911FDF91CF911F910F91FF9024
:10207000EF90DF90CF90BF90AF909F908F9008959A
:102080002CED32E0FC0131832083FB014081518142
:1020900062817381FC014283538364837583089555
:1020A0001F920F920FB60F9211240BB60F922F931F
:1020B0003F934F935F936F937F938F939F93AF93D0
:1020C000BF93EF93FF9388EA93E042DDFF91EF9196
:1020D000BF91AF919F918F917F916F915F914F9140
:1020E0003F912F910F900BBE0F900FBE0F901F903E
:1020F00018951F920F920FB60F9211240BB60F92E4
:102100002F933F934F935F936F937F938F939F93FF
:10211000AF93BF93EF93FF9388EA93E0C0DCFF9106
:10212000EF91BF91AF919F918F917F916F915F914F
:102130004F913F912F910F900BBE0F900FBE0F90BC
:102140001F9018951F920F920FB60F9211240BB685
:102150000F922F933F934F935F936F937F938F9340
:102160009F93AF93BF93EF93FF9385E494E0F0DCEC
:10217000FF91EF91BF91AF919F918F917F916F915F
:102180005F914F913F912F910F900BBE0F900FBE1B
:102190000F901F9018951F920F920FB60F92112457
:1021A0000BB60F922F933F934F935F936F937F9351
:1021B0008F939F93AF93BF93EF93FF9385E494E046
:1021C0006EDCFF91EF91BF91AF919F918F917F91C5
:1021D0006F915F914F913F912F910F900BBE0F9098
:1021E0000FBE0F901F901895CF92DF92EF92FF9243
:1021F0001F93CF93DF93EC016A017B01122FE889D3
:10220000F98982E080834115514E61057105B1F075
:1022100060E079E08DE390E0A70196010E94341C14
:10222000DA01C9010197A109B109B695A79597955A
:102230008795AC01411580E15807A8F0E889F98934
:10224000108260E874E88EE190E0A70196010E9498
:10225000341CBA01A90141505109610971097695EF
:10226000679557954795EC85FD855083EE85FF85ED
:102270004083188EEC89FD891083EA89FB8980816F
:1022800080618083EA89FB89808188608083EA8914
:10229000FB89808180688083EA89FB8980818F7DCA
:1022A0008083DF91CF911F91FF90EF90DF90CF90CF
:1022B0000895CF93C82F462F61E070E00E94B704C5
:1022C00061E070E08C2F0E94C0048111F9CFCF91A2
:1022D0000895FF920F931F93CF93DF931F92CDB773
:1022E000DEB7F82E8A0169830E94970580E590E0A9
:1022F0000E940D056981462F60E070E08F2D0E94DD
:10230000B7040115110551F40091F6041091F7047A
:102310000F5F1F4F1093F7040093F604412F64E002
:1023200070E08F2D0E94B704402F65E070E08F2D84
:102330000E94B70461E070E08F2DBBDF0E940C05A6
:1023400081E00F90DF91CF911F910F91FF90089541
:102350008F929F92AF92BF92CF92DF92EF92FF92B5
:102360000F931F93CF93DF93B82E4B018A01A22EB8
:1023700068E270E00E94C004C82FD0E069E270E01B
:102380008B2D0E94C004DC2FCC27C82B9E013770F8
:10239000CB2CD12CC601880F991FAC0140565C4F45
:1023A0006A01FA0180819181820F931FA801420F77
:1023B000531F4130584098F060E078E07B01E21A0A
:1023C000F30AA701B4010E944704A8014E195F094E
:1023D000B4016E0D7F1DF6018081918102C0A801BC
:1023E000B4010E944704A1100EC0C00FD11F4D2F91
:1023F00068E270E08B2D0E94B7044C2F69E270E018
:102400008B2D0E94B704DF91CF911F910F91FF9008
:10241000EF90DF90CF90BF90AF909F908F900895F6
:102420009F92AF92BF92CF92DF92EF92FF920F9363
:102430001F93CF93DF93982E8B015A01690164E2B9
:1024400070E00E94C004E82EF12C65E270E0892D56
:102450000E94C004FE2CEE24E82AE701C00FD11F21
:102460009E013770E92CF12CC701880F991FAC0130
:1024700048565C4F7A01FA0180819181820F931F47
:10248000A9014C0D5D1D4130584090F000E018E06E
:10249000021B130BA801B5010E947104A601401B89
:1024A000510BB501600F711FF7018081918102C04E
:1024B000A601B5010E947104CC0DDD1D4D2F64E213
:1024C00070E0892D0E94B7044C2F65E270E0892DE1
:1024D000DF91CF911F910F91FF90EF90DF90CF9000
:1024E000BF90AF909F900C94B704FF920F931F93EF
:1024F000CF93DF93F82EC0E0D0E08F2D0E94F6043A
:102500008C01892B21F08F2D0E94F604EC01C0175D
:10251000D10799F7CE01DF91CF911F910F91FF90D5
:10252000089590E0FC01EE57FE4F2491FC01E45C1D
:10253000FE4F8491882399F090E0880F991FFC0149
:10254000EE5DFE4FA591B491FC01E85FFE4F8591D1
:1025500094918FB7F894EC91E22BEC938FBF089590
:102560003FB7F8948091270590912805A0912905FF
:10257000B0912A0526B5A89B05C02F3F19F00196FA
:10258000A11DB11D3FBFBA2FA92F982F8827820FF9
:10259000911DA11DB11DBC01CD0142E0660F771F49
:1025A000881F991F4A95D1F708958F929F92AF92F5
:1025B000BF92CF92DF92EF92FF926B017C01D0DF4E
:1025C0004B015C01C114D104E104F104E9F0C8DF5E
:1025D000DC01CB0188199909AA09BB09883E9340FF
:1025E000A105B10578F321E0C21AD108E108F1088C
:1025F00088EE880E83E0981EA11CB11CC114D10482
:10260000E104F10421F7DECFFF90EF90DF90CF904F
:10261000BF90AF909F908F900895CF936CE271E040
:1026200080E090E0C2DFCFB7F89480912B05811154
:1026300090C061E771E0FB018491A7EBB1E0FD017F
:10264000349190E0880F991F8E5D9E4FFC0145915B
:102650005491FA018081382309F06FC0EDEFF1E069
:102660004491FD012491FB019491992309F465C0E3
:10267000442309F454C050E0FA013197E231F105E6
:1026800008F04DC08827EE58FF4F8F4F2BC6809122
:1026900080008F7707C0809180008F7D03C080917C
:1026A0008000877F809380003AC084B58F7702C016
:1026B00084B58F7D84BD33C08091B0008F7703C017
:1026C0008091B0008F7D8093B00029C080919000F0
:1026D0008F7707C0809190008F7D03C0809190001C
:1026E000877F809390001BC08091A0008F7707C0E8
:1026F0008091A0008F7D03C08091A000877F809390
:10270000A0000DC0809120018F7707C0809120012B
:102710008F7D03C080912001877F80932001E92F66
:10272000F0E0EE0FFF1FE85FFE4FA591B4918FB769
:10273000F8949C91292B2C938FBF85E3F2DE8CB506
:1027400080618CBD8CB580648CBD84E3EADE83E35C
:10275000E8DE80912B058F5F80932B05CFBF249AF5
:1027600080E590E00E940D0560E880E090E00E9426
:102770009A0465E58BE190E00E949A0465E58AE1A0
:1027800090E00E949A040E940C0580E090E49093EF
:1027900099038093980380E090E69093A10380933F
:1027A000A00380E098E490939B0380939A0380E0D9
:1027B00098E69093A3038093A20380E090E5909322
:1027C0009D0380939C0380E090E79093A503809302
:1027D000A40380E098E590939F0380939E0380E09C
:1027E00098E79093A7038093A603CF910895CF9283
:1027F000DF92EF92FF92CF93DF93CDB7DEB768976A
:102800000FB6F894DEBF0FBECDBFFA012CED32E05B
:102810003A8329835FEF5B835C835D831E82388705
:102820002F83C280D380E480F580C986DA86EB8668
:10283000FC86FB0142815381648175814F87588BEF
:10284000698B7A8B3C8B2B8BFC0182819381A481D9
:10285000B5818D8B9E8BAF8BB88FDFDE80E590E0EE
:102860000E940D0546E050E06EE072E089E090E0E5
:102870000E947104CE0145960E94DA0644E050E0C1
:10288000BE01675F7F4F81E090E00E94710444E0E9
:1028900050E0BE016D5F7F4F85E090E00E947104C3
:1028A0000E940C058F859889A989BA898093E404D0
:1028B0009093E504A093E604B093E70468960FB6FE
:1028C000F894DEBF0FBECDBFDF91CF91FF90EF90A8
:1028D000DF90CF9008952FB7F89460912305709101
:1028E000240580912505909126052FBF08951F92FC
:1028F0000F920FB60F9211242F933F938F939F93B4
:10290000AF93BF938091230590912405A091250555
:10291000B09126053091220523E0230F2D3720F4B6
:102920000196A11DB11D05C026E8230F0296A11D29
:10293000B11D209322058093230590932405A09335
:102940002505B09326058091270590912805A09133
:102950002905B0912A050196A11DB11D8093270577
:1029600090932805A0932905B0932A05BF91AF91B4
:102970009F918F913F912F910F900FBE0F901F90BD
:102980001895CF93DF93CDB7DEB7A3970FB6F89422
:10299000DEBF0FBECDBF789484B5826084BD84B5A0
:1029A000816084BD85B5826085BD85B5816085BD4A
:1029B00080916E00816080936E0010928100809102
:1029C000810082608093810080918100816080938A
:1029D0008100809180008160809380008091B100AF
:1029E00084608093B1008091B00081608093B000DA
:1029F000809191008260809391008091910081602C
:102A000080939100809190008160809390008091EC
:102A1000A10082608093A1008091A10081608093D9
:102A2000A1008091A00081608093A000809121018D
:102A30008260809321018091210181608093210136
:102A40008091200181608093200180917A008460D0
:102A500080937A0080917A00826080937A008091DE
:102A60007A00816080937A0080917A0080688093F8
:102A70007A001092C10062EE74E080E090E095DD93
:102A800026E040E05BE460E070E088EA93E0ACDBE5
:102A900026E040E05BE460E070E085E494E0A4DBE5
:102AA00068E072E0CE010196EBDA64E072E0CE01FC
:102AB0000E96E6DA60E072E0CE014B96E1DAAE0106
:102AC0004F5F5F4FBE01625F7F4FCE014B968FDE3F
:102AD0008091900381112AC010927803109277039D
:102AE00088EE93E0A0E0B0E08093790390937A03BE
:102AF000A0937B03B0937C0386E492E090937603EB
:102B00008093750384E0809381038CED92E0909331
:102B1000850380938403109286031092870310929A
:102B200088031092890381E0809390038EE293E002
:102B30009093E9048093E80470DD80E590E00E94C2
:102B40000D0546E050E06EE072E089E090E00E9402
:102B500071048CED92E09A8389831B821C821D8212
:102B60001E82CE0103960E94DA060E940C05009197
:102B7000E8041091E904D80192961D921D921D92CD
:102B80001C929597F80116A217A210A611A69A9664
:102B90001D921D921D921C929D9716AA17AA10AE07
:102BA00011AE80E69AEEA0E0B0E082AF93AFA4AFA2
:102BB000B5AF1801FEE32F0E311C80EA9FE0A0E0C4
:102BC000B0E0F10180839183A283B383D80118968A
:102BD00086E0FD01982F11929A95E9F79801225FFE
:102BE0003F4F94E1F90111929A95E9F7EEE0F2E096
:102BF00001900D928A95E1F74801F6E48F0E911C41
:102C0000D4011C92F9D52FEC37E040E050E000D61B
:102C1000DC01CB010196A11DB11DF80184839583D0
:102C2000A683B78380839183A283B3835801F7E49B
:102C3000AF0EB11CC5010E94E90A64E470E0C50151
:102C40000E94FD0A882309F466C145DE2B013C0180
:102C50001BA21AA219A258EEC52E53E0D52EE12CC4
:102C6000F12CD4018C91833009F4F5C081111DC081
:102C7000F80184819581A681B7810196A11DB11DBE
:102C800084839583A683B78326DE64197509860934
:102C90009709A7019601E8D5A90161E0C8010E9442
:102CA0003E0381E0D4018C93B9C08430E9F4F8018B
:102CB00084819581A681B7810196A11DB11D848370
:102CC0009583A683B78307DE64197509860997097A
:102CD000A7019601C9D5A90163E0C8010E943E037E
:102CE000E2E0D401EC939AC0813049F5D1014D91D5
:102CF0005D916D917C919E012F5F3F4FC8010E94B5
:102D0000720189A3823009F089C089819A81AB81DF
:102D1000BC81F80184839583A683B783DCDD6419C5
:102D2000750986099709A70196019ED5A90163E057
:102D3000C8010E943E03E9A1D401EC9375C0823022
:102D400009F06CC0D1014D915D916D917C919E0116
:102D50002F5F3F4FC8010E94720189A3853009F09F
:102D600057C083E0F4018083F80182A193A1A4A15C
:102D7000B5A1892B8A2B8B2B41F484E893E0A0E04A
:102D8000B0E082A393A3A4A3B5A3F80186A197A161
:102D9000A0A5B1A5892B8A2B8B2B61F482A193A1CD
:102DA000A4A1B5A1B695A7959795879586A397A356
:102DB000A0A7B1A7D8019A964D915D916D917C9194
:102DC0009D9796968D919D910D90BC91A02D452B30
:102DD000462B472B59F4AC01BD01440F551F661F0C
:102DE000771FF80142A753A764A775A7F80186A724
:102DF00097A7A0ABB1AB82A593A5A4A5B5A582ABBF
:102E000093ABA4ABB5AB81E090E09BA38AA30CC0CD
:102E100099A1963019F4D4011C9206C0B9A1BF3F04
:102E200019F4F401108219A28AA19BA1019709F457
:102E300018CF51DDDC01CB0184199509A609B7092A
:102E4000F80122AD33AD44AD55AD281739074A0717
:102E50005B0708F006CFC5010E94E90AF8018481EA
:102E60009581A681B7810196A11DB11D84839583AB
:102E7000A683B7838AA19BA1019709F04CC080E586
:102E800090E00E940D056091E8047091E904625F92
:102E90007F4FCE010196F4D8CE0103960E94DA0648
:102EA0006091E8047091E9046A5E7F4FCE0101965B
:102EB000E7D844E050E0BE016D5F7F4F81E090E0D5
:102EC0000E9471046091E8047091E9046E5E7F4F86
:102ED000CE010196D5D844E050E0BE016D5F7F4F32
:102EE00085E090E00E9471040E940C056091E80466
:102EF0007091E904625E7F4FCE010196C1D88B814B
:102F00009C81AD81BE818093E4049093E504A093FD
:102F1000E604B093E70480EF94E00E94740B64EE43
:102F200072E085E494E007D86AEF70E080E090E01A
:102F30003CDB67EE72E085E494E00E949B0F64EE58
:102F400072E085E494E00E949B0F6AEC78E080E0F8
:102F500090E02BDB66EF72E085E494E00E949B0F2B
:102F60008CED92E09A8389831B821C821D821E82D3
:102F700080E590E00E940D0544E050E0BE016D5FE9
:102F80007F4F8FE090E00E9447040E940C0565E4AB
:102F900074E0CE0101962CD864EE72E085E494E0F2
:102FA0000E949B0F64EE72E085E494E00E949B0F08
:102FB00063E073E085E494E00E949B0F64EE72E0AE
:102FC00085E494E00E949B0F98EE892E93E0992E61
:102FD000A12CB12C26E8E22E22E0F22E80EF94E024
:102FE0000E943F0C86E2C82E83E0D82E10E01C829F
:102FF0001B828D829E82AF82B886FA82E9821D870B
:10300000D6012D913D916D018091F4049091F504CC
:103010002817390739F5CE0101960E946D0B8731CB
:1030200011F08C31F9F4CE0101960E94650B892BC9
:10303000C9F08B819C81998B888B8D819E81AF811A
:10304000B8858A8B9B8BAC8BBD8B89859A85AB852C
:10305000BC858E8B9F8BA88FB98FFF86EE868D8562
:103060008A8F0CC01F5F143011F6198A188A8A8A59
:103070009B8AAC8ABD8AFF86EE861A8F8A8D843041
:1030800009F484C01A8219821C821B821E821D824E
:1030900040E050E066EE72E0CE0101960E943A01F7
:1030A000CE010E960E94DA0B882309F46CC0CE0183
:1030B0000E960E94650B892B09F442C0CE010E9634
:1030C0000E944C0BD82E8B8F1C8E0D811E810F5FA2
:1030D0001F4FB801CE0101960E94740F882361F042
:1030E00029813A818D819E81BE01655E7F4F820F6D
:1030F000931F32D31E830D83BAE0DB12D8CF4D81EC
:103100005E8169817A8188EA93E00E94240D4D8175
:103110005E8169817A8185E494E00E94240D40E01B
:1031200050E066EE72E0CE0101960E943A0188EA14
:1031300093E00E940F0E85E494E00E940F0EB7CF3B
:1031400088EA93E00E948A0D1816190654F488EA5A
:1031500093E00E94680D682FCE010E960E94B10583
:10316000EFCF85E494E00E948A0D181619060CF042
:1031700097CF85E494E00E94680D682FCE010E96EB
:103180000E94B105EECF89819A8150D10E94300E04
:1031900025CFE8EFF4E08CED92E0918380831282FA
:1031A000138214821582E8EAF3E01382128248EE59
:1031B00053E060E070E044835583668377832AEAB6
:1031C00032E031832083ADECB0E0B587A487ACEC6E
:1031D000B0E0B787A687A8ECB0E0B18BA08BA9ECD4
:1031E000B0E0B38BA28BAAECB0E0B58BA48BAEECB5
:1031F000B0E0B78BA68B118E128E138E148EE5E481
:10320000F4E013821282448355836683778331838B
:10321000208325EC30E03587248724EC30E03787A5
:10322000268720EC30E0318B208B21EC30E0338B93
:10323000228B22EC30E0358B248B26EC30E0378B70
:10324000268B118E128E138E148EEEEFF4E0918386
:1032500080831282138214821582E4E0F5E0918368
:1032600080831282138214821582EAE0F5E0918352
:1032700080831282138214821582E0E1F5E091834B
:1032800080831282138214821582E2EEF4E091832D
:1032900080831282138214821582EAEEF4E0918315
:1032A00080831282138214821582E6E1F5E0918315
:1032B00080831282138214821582ECE1F5E09183FF
:1032C00080831282138214821582E0EFF4E013826D
:1032D00012828AEC92E09183808388EB92E295835C
:1032E00084830895EE0FFF1F881F8BBF0790F69110
:1032F000E02D19946927962769277827872778274B
:103300000895CF93DF938230910510F482E090E02E
:10331000E0912E05F0912F0520E030E0C0E0D0E0F4
:10332000309711F14081518148175907C0F0481773
:10333000590761F482819381209719F09B838A83D6
:103340002BC090932F0580932E0526C021153105A3
:1033500019F04217530718F49A01BE01DF01EF017B
:103360000280F381E02DDCCF2115310509F1281B06
:10337000390B2430310590F412968D919C9113975E
:103380006115710521F0FB019383828304C0909342
:103390002F0580932E05FD01329644C0FD01E20FFA
:1033A000F31F81939193225031092D933C933AC09E
:1033B00020912C0530912D05232B41F420911602EC
:1033C0003091170230932D0520932C052091140283
:1033D000309115022115310541F42DB73EB74091CA
:1033E000180250911902241B350BE0912C05F09125
:1033F0002D05E217F307A0F42E1B3F0B2817390702
:1034000078F0AC014E5F5F4F2417350748F04E0F40
:103410005F1F50932D0540932C058193919302C01B
:10342000E0E0F0E0CF01DF91CF9108950F931F937B
:10343000CF93DF93009709F48CC0FC01329713827D
:10344000128200912E0510912F050115110581F4AE
:1034500020813181820F931F20912C0530912D0501
:103460002817390779F5F0932D05E0932C0571C0E5
:10347000D80140E050E0AE17BF0750F412962D91EE
:103480003C911397AD012115310509F1D901F3CF15
:103490009D01DA013383228360817181860F971F3A
:1034A0008217930769F4EC0128813981260F371FB1
:1034B0002E5F3F4F318320838A819B819383828358
:1034C000452B29F4F0932F05E0932E0542C0139667
:1034D000FC93EE931297ED01499159919E01240FAF
:1034E000351FE217F30771F480819181840F951FD6
:1034F000029611969C938E938281938113969C934E
:103500008E931297E0E0F0E0D80112968D919C9195
:103510001397009719F0F8018C01F6CF8D919C91CB
:1035200098012E5F3F4F820F931F20912C05309101
:103530002D052817390769F4309729F410922F05C3
:1035400010922E0502C01382128210932D05009353
:103550002C05DF91CF911F910F9108956F927F926B
:103560008F929F92AF92BF92CF92DF92EF92FF9293
:103570000F931F93CF93DF93EC01009781F4CB015E
:10358000DF91CF911F910F91FF90EF90DF90CF903F
:10359000BF90AF909F908F907F906F90B2CEFC01C4
:1035A000E60FF71F9C0122503109E217F30708F4D8
:1035B000A8C0D9010D911C91119706171707A8F003
:1035C0000530110508F49BC0C801049786179707BA
:1035D00008F495C002501109061B170B01931193B3
:1035E0006D937C93CF0122DF8AC05B01A01AB10AE0
:1035F0004C01800E911EA0912E05B0912F0540E048
:1036000050E0E12CF12C109709F44AC0A815B90537
:10361000D1F56D907C901197630182E0C80ED11CAA
:10362000CA14DB0480F1A3014A195B096A0182E034
:10363000C80ED11C1296BC9012971396AC91B5E0AF
:10364000CB16D10440F0B282A38351834083D901C9
:103650006D937C930AC00E5F1F4FC301800F911FB3
:10366000F90191838083EB2DFA2FE114F10431F0FD
:10367000D7011396FC93EE93129741C0F0932F0558
:10368000E0932E053CC08D919C91119748175907E6
:1036900008F4AC017D0112960D90BC91A02DB3CF22
:1036A00080912C0590912D0588159905E1F4461718
:1036B0005707C8F48091140290911502009741F4C5
:1036C0008DB79EB74091180250911902841B950B3B
:1036D000E817F907B0F4F0932D05E0932C05F901F4
:1036E000718360830CC0CB010CDE7C01009749F034
:1036F000A801BE0128D0CE0199DEC70104C0CE01C9
:1037000002C080E090E0DF91CF911F910F91FF9078
:10371000EF90DF90CF90BF90AF909F908F907F9071
:103720006F90089581E090E0F894CFC0FB01DC0138
:1037300004C08D910190801921F441505040C8F788
:10374000881B990B0895FB01DC0102C001900D92CA
:1037500041505040D8F70895FB01DC0101900D92D3
:103760000020E1F708958F929F92AF92BF92CF927F
:10377000DF92EF92FF92CF93DF93EC016881798122
:103780008A819B81611571058105910521F464E2AF
:1037900079ED8BE597E02DE133EF41E050E038D053
:1037A00049015A019B01AC01A7EAB1E44DD06B017C
:1037B0007C01ACEEB4EFA501940152D0DC01CB0149
:1037C0008C0D9D1DAE1DBF1DB7FF03C00197A10944
:1037D000B04888839983AA83BB83BC01CD019F77BE
:1037E000DF91CF91FF90EF90DF90CF90BF90AF909F
:1037F0009F908F900895B7CF8AE192E0B4CF609305
:103800001A0270931B0280931C0290931D0208956C
:10381000052E97FB16F400940FD057FD05D024D049
:1038200007FC02D046F408C050954095309521958C
:103830003F4F4F4F5F4F08959095809570956195DC
:103840007F4F8F4F9F4F089531D0A59F900DB49F0C
:10385000900DA49F800D911D11240895B7FFF4CF02
:10386000F3DF821B930B0895A1E21A2EAA1BBB1B48
:10387000FD010DC0AA1FBB1FEE1FFF1FA217B3073C
:10388000E407F50720F0A21BB30BE40BF50B661F52
:10389000771F881F991F1A9469F760957095809516
:1038A00090959B01AC01BD01CF010895A29FB0018D
:1038B000B39FC001A39F700D811D1124911DB29F64
:0E38C000700D811D1124911D0895F894FFCF05
:1038CE000A0D26B10A0D2601FFFFFF0000C0D34DE1
:1038DE00B33FF33D00003005800001000000000002
:1038EE000000650165016501650165016501650100
:1038FE00650165016501650165016501650165018A
:10390E00650100000000750E3F0FC109C30E8B0E3E
:10391E00630EFD0AE90A380A770A0A0AEC0EA40EAB
:10392E00D909C909C50900000000650165016501D5
:10393E006501650165016501650165016501650149
:10394E00650100000000B105D605650B4C0B270B79
:10395E00090A49063A09490BFD0BDA0B010AD30590
:10396E00D105F609C70500000000C90D240D8A0D0A
:10397E00680D7C0D0F0E000000006501240D650121
:10398E0065016501650100000000E009B60C740BCD
:10399E00000000006501240D00000000F80F00007B
:1039AE00000065010D0A00496E697469616C697ADF
:1039BE00696E672E2E0049502061646472657373C0
:1039CE003A2000426F6F7465642073797374656D6D
:1039DE00207375636365737366756C6C792100571C
:0639EE00495A6E657400E9
:00000001FF
