:1000000008C1000037C1000035C1000033C1000045
:1000100031C100002FC100002DC100002BC1000024
:1000200029C1000027C1000025C1000023C1000034
:1000300021C100001FC100001DC100001BC1000044
:1000400019C1000017C1000015C1000013C1000054
:1000500011C100000FC100000DC100000C94040983
:1000600009C100000C948B090C94620903C10000C3
:1000700001C10000FFC00000FDC00000FBC0000087
:10008000F9C00000F7C00000F5C00000F3C0000098
:10009000F1C00000EFC00000EDC00000EBC00000A8
:1000A000E9C00000E7C00000E5C00000E3C00000B8
:1000B000E1C00000DFC00000DDC00000DBC00000C8
:1000C000D9C00000D7C00000D5C00000D3C00000D8
:1000D000D1C00000CFC00000CDC00000CBC00000E8
:1000E000C9C00000300E330E220E260E2A0E6A0EF4
:1000F000370E3B0E410E450E490E4F0E530E570E56
:100100006A0E5D0E610E650E00000A0B02090C0DF1
:100110000E080703040100000000000000000000BA
:1001200000000000000000000000000000000000CF
:10013000000000001211100000000000000000008C
:1001400000000000000000000000000000000000AF
:100150002200250028002B002E003100340002016F
:100160000000050108010B01000021002400270008
:100170002A002D00300033000101000004010701B6
:100180000A0105050505070508080808020202021C
:100190000A0A080804040404010101010101010123
:1001A0000303030303030303040707070C0C0C0CEE
:1001B0000C0C0C0C020202020606060606060606D7
:1001C0000B0B0B0B0B0B0B0B010210202008081064
:1001D00020401020408002010201080402010102B7
:1001E0000408102040808040201008040201800490
:1001F00002018040201008040201080402010102EB
:100200000408102040800102040810204080FB13E5
:10021000BA1111241FBECFEFD1E2DEBFCDBF00E087
:100220000CBF14E0A0E0B2E0EAEFFDE200E00BBF9B
:1002300002C007900D92A637B107D9F725E0A6E7CF
:10024000B4E001C01D92AF37B207E1F711E0C8E09A
:10025000D1E000E006C021970109802FFE010E9435
:100260008314C730D10780E00807A9F70E94BF11A7
:100270000C94EC16C5CE2C9A08952C9808958EBD3A
:1002800000000DB407FEFDCF8EB508952F923F926A
:100290004F925F926F927F928F929F92AF92BF9296
:1002A000CF92DF92EF92FF920F931F93CF93DF9342
:1002B000CDB7DEB765970FB6F894DEBF0FBECDBFE2
:1002C0007C016B013A01FB0120E080E090E06AE0F4
:1002D0003191332309F140ED430F4A3080F4689F98
:1002E000A001699F500D1124CA01C097830F911D71
:1002F00037FD9A958F3F910559F350F313C03E3265
:1003000089F4233079F0D301A20FB11D12968C939A
:100310002F5F80E090E0DCCF233021F4F301858370
:1003200081E020C0F7014281538164817581809111
:10033000400590914105A0914205B09143054817B1
:1003400059076A077B0709F48FC152D78701085FF5
:100350001F4F6F7077277C5FC8010E941F1181308B
:1003600019F080E090E0DCC18AE992E09A83898309
:10037000F70182819381A481B5818B839C83AD83B6
:10038000BE8345E350E0BE016F5F7F4FC8010E940E
:100390005E10892B19F4C12CD12C61C129D7F7012A
:1003A000778366837627672776277A83698342E097
:1003B00050E0BE016F5F7F4FC8010E94F20F81E0E5
:1003C00090E09E878D8742E050E0BE01635F7F4FE3
:1003D000C8010E94F20F80E091E09E878D8742E085
:1003E00050E0BE01635F7F4FC8010E94F20F1E867E
:1003F0001D8642E050E0BE01635F7F4FC8010E944E
:10040000F20F42E050E0BE01635F7F4FC8010E94DF
:10041000F20F42E050E0BE01635F7F4FC8010E94CF
:10042000F20F5601F5018081882311F1F6015F0179
:100430008191811115C045018C189D08181419046B
:1004400094F48F8641E050E0BE01615F7F4FC801A8
:100450000E94F20FA401B601C8010E94F20F03C06E
:100460008E3229F7E8CF6501FFEFCF1ADF0ADACF26
:100470001F8641E050E0BE01615F7F4FC8010E94CE
:10048000F20FC12CDD24D394DE86CD8642E050E00D
:10049000BE01635F7F4FC8010E94F20FDE86CD86EA
:1004A00042E050E0BE01635F7F4FC8010E94F20F3F
:1004B000C8010E942710892B09F46DCF63E0A62E96
:1004C000B12CF2E06F0E711C93D61B012C01C801F8
:1004D00013D6181619069CF08BD6DC01CB018219B5
:1004E0009309A409B50989389341A105B105D0F450
:1004F00062E370E080E090E00E947E0EE8CFF701BA
:100500004281538164817581808D918DA28DB38DDF
:10051000481759076A077B0741F4848D958DC59765
:1005200021F406C02FEF3FEF90C02EEF3FEF8DC0BC
:10053000F70181A192A10C970CF49CC04CE050E013
:10054000BE016F5F7F4FC80191D58B8190E0982FDE
:1005500088272C81822B9A8B898B298130E0322F3E
:1005600022274A81242BF7014681578142175307DE
:1005700009F07DC097FF7BC08F709270892B09F0C6
:10058000CCC0CF80D12CDC2CCC248885C82AC114C7
:10059000D10409F4BFC0812C912C8D8190E0982F5B
:1005A00088272E81822B8816990608F466C0812C34
:1005B000912C41E050E0BE016D5E7F4FC80156D5E1
:1005C0008B89982F907C09F084C0811178C08B8929
:1005D0008111EFCF42E050E0BE01615F7F4FC80163
:1005E00045D542E050E0BE01635F7F4FC8013ED574
:1005F000C8015AD5C80158D5C80156D5C80154D527
:1006000042E050E0BE016F5E7F4FC8012FD58F855D
:1006100098898115914009F060C02D853E8532276B
:10062000232732272130310509F057C089899A895B
:100630008115944009F06BC044E050E0B301C8015B
:100640002C8B3D8B13D52C893D896901F1E0AF1AC4
:10065000B10829F02FEFC216D20609F435CFC80130
:100660000E940A11C6015CC08EEF9FEF59C02CEFAB
:100670003FEFEBCF2DEF3FEFE8CF41E050E0BE0181
:10068000635F7F4FC801F2D48D8581110FC08D85C6
:100690008111F3CFC80108D5C80106D5C80104D51A
:1006A000C80102D5FFEF8F1A9F0A77CF8D859FEF84
:1006B000980F9D87882359F3C801F6D4F7CF8B890B
:1006C0009FEF980F9B8B882309F481CFC801ECD44E
:1006D000F6CFC801E9D41B8A7ACF412C512C8989E5
:1006E0009A899827892798274816590630F4C8010F
:1006F000DBD48FEF481A580AF2CFEFEF8E1A9E0A1A
:100700008C149D0409F055CF26EF3FEF9ECF27EFC5
:100710003FEF9BCF2AEF3FEF98CF2BEF3FEF95CFE7
:1007200065960FB6F894DEBF0FBECDBFDF91CF91B7
:100730001F910F91FF90EF90DF90CF90BF90AF90FF
:100740009F908F907F906F905F904F903F902F90F1
:100750000895CF92DF92EF92FF920F931F93CF9362
:10076000DF93EC017A018B016C01C40ED51ECC1510
:10077000DD0579F082DD8FE082DD8D2F80DD8C2F2D
:100780007EDD219680E07BDDF80181938F0173DDB2
:10079000EECFC701DF91CF911F910F91FF90EF90A6
:1007A000DF90CF900895CF92DF92EF92FF920F9358
:1007B0001F93CF93DF93EC017A018B016C01C40E80
:1007C000D51ECC15DD0571F058DD80EF58DD8D2F7D
:1007D00056DD8C2F54DD2196F80181918F014FDD7C
:1007E0004ADDEFCFC701DF91CF911F910F91FF90AD
:1007F000EF90DF90CF9008951F93CF93DF931F92D8
:100800001F92CDB7DEB7182F6A83998336DD80EF4C
:1008100036DD9981892F33DD812F31DD6A81862F85
:100820002EDD29DD81E00F900F90DF91CF911F9198
:1008300008959B0190E00496982F8827642F820FDB
:10084000931FDACF0F931F93CF93DF931F92CDB7F0
:10085000DEB790E00496982F88278C01060F171FAB
:100860000CDD8FE00CDD812F0ADD802F08DD80E0BC
:1008700006DD898300DD89810F90DF91CF911F9183
:100880000F9108951F93CF93DF93182F66E270E0C6
:10089000D9DFC82FD0E067E270E0812FD3DFDC2FF3
:1008A000CC279E01282BC901DF91CF911F9108957C
:1008B0001F93CF93DF93182F60E270E0C3DFC82F40
:1008C000D0E061E270E0812FBDDFDC2FCC279E01FC
:1008D000282BC901DF91CF911F910895CF93DF930A
:1008E000C82FD62F472F60E170E0A3DF4D2F61E1C5
:1008F00070E08C2FDF91CF919CCF90E0982F8827CC
:1009000044E050E0845F9B4F4ECF08958CBD9DBD69
:100910000895EF92FF921F93CF93DF93182F7B01DF
:1009200080E590E0F3DF68E270E0812F8BDFC82F75
:10093000D0E069E270E0812F85DFDC2FCC27BE019B
:10094000682B21E030E0A701812F0E943B0D81E060
:1009500090E0DF91CF911F91FF90EF900895FF926B
:100960000F931F93CF93DF93F82E80E590E0CEDFB7
:10097000C0E0D0E08F2D86DF8C01892B19F08F2D00
:1009800081DFEC01C017D107A9F7CE01DF91CF912C
:100990001F910F91FF900895AF92BF92DF92EF9257
:1009A000FF920F931F93CF93DF93D82E7B018A0181
:1009B00080E590E0ABDFC0E0D0E08D2D63DF5C012F
:1009C000892B19F08D2D5EDFEC01CA15DB05A9F727
:1009D000209791F463E070E08D2D34DF8431B1F124
:1009E0008823A1F1C1E0D0E08C3111F4C0E0D0E067
:1009F000D195C195D1092AC00C171D070CF4E80147
:100A00001C161D061CF568E270E08D2D1BDF082FFB
:100A100010E069E270E08D2D15DF102F0027082B04
:100A20009E01A701B8018D2D0E943B0D0C0F1D1FCB
:100A3000412F68E270E08D2DFCDE402F69E270E00E
:100A40008D2DF7DE60E470E08D2DCAD7CE01DF91E9
:100A5000CF911F910F91FF90EF90DF90BF90AF90DB
:100A60000895CF93C82F80E590E050DF60E170E0FB
:100A70008C2FB6D74FEF62E070E08C2FCF91D9CE9C
:100A8000FF920F931F93CF93DF931F921F92CDB7C7
:100A9000DEB7F82E8A012A836983E3DF80E590E0E0
:100AA00035DF2A816981462F422B60E070E08F2D6F
:100AB000C0DE0115110551F4009176041091770400
:100AC0000F5F1F4F1093770400937604412F64E06B
:100AD00070E08F2DAEDE402F65E070E08F2DA9DE37
:100AE00061E070E08F2D7CD781E00F900F90DF9157
:100AF000CF911F910F91FF900895CF93C82F80E55C
:100B000090E004DF63E070E08C2FCF919BCECF921A
:100B1000DF92EF92FF920F931F93CF93DF936C01BD
:100B20007A018B01C0E0D0E0CE15DF0589F0D80155
:100B30006D918D01D601ED91FC910190F081E02D38
:100B4000C6011995892B11F47E0102C02196ECCFC4
:100B5000C701DF91CF911F910F91FF90EF90DF9030
:100B6000CF900895FC01918D828D981761F0828D50
:100B7000DF01A80FB11D5D968C91928D9F5F9F73D1
:100B8000928F90E008958FEF9FEF0895FC01918D73
:100B9000828D981731F0828DE80FF11D858D90E0E0
:100BA00008958FEF9FEF0895FC01918D228D892F7D
:100BB00090E0805C9F4F821B91098F739927089565
:100BC00089E994E0F1DF21E0892B09F420E0822F0C
:100BD0000895FC01848DDF01A80FB11DA35ABF4FFA
:100BE0002C91848D90E001968F739927848FA6892C
:100BF000B7892C93A089B1898C9180648C93938D53
:100C0000848D981306C00288F389E02D80818F7D42
:100C100080830895EF92FF920F931F93CF93DF93FA
:100C2000EC0181E0888F9B8D8C8D981305C0E8893D
:100C3000F989808185FD23C0F62E0B8D10E00F5FB2
:100C40001F4F0F731127E02E8C8DE8120BC00FB6CB
:100C500007FCFACFE889F989808185FFF5CFCE01BD
:100C6000B8DFF2CF8B8DFE01E80FF11DE35AFF4F85
:100C7000F0820B8FEA89FB898081806207C0EE8950
:100C8000FF896083E889F98980818064808381E0BD
:100C900090E0DF91CF911F910F91FF90EF90089519
:100CA000CF93DF93EC01888D8823C1F0EA89FB891B
:100CB000808185FD05C0A889B9898C9186FD0EC00B
:100CC0000FB607FCF5CF808185FFF2CFA889B989DF
:100CD0008C9185FFEDCFCE017CDFE8CFDF91CF9106
:100CE000089580E090E0892B19F06ADF811125C01A
:100CF00080E090E0892B41F080E090E0892B21F0AA
:100D00000E94000081111CC080E090E0892B41F01E
:100D100080E090E0892B21F00E940000811113C037
:100D200080E090E0892BA1F080E090E0892B81F0B9
:100D30000E94000081110AC008950E940000D8CFCF
:100D40000E940000E1CF0E940000EACF0C94000056
:100D5000089508956115710579F0FB010190002057
:100D6000E9F73197AF01461B570BDC01ED91FC9180
:100D70000280F381E02D199480E090E008954F9275
:100D80005F926F927F92EF92FF920F931F93CF9398
:100D9000DF93CDB7DEB7A1970FB6F894DEBF0FBED5
:100DA000CDBF7C01FA01CB0119A2223008F42AE060
:100DB0008E010F5D1F4F422E512C612C712CBF01F3
:100DC000A30192010E94CA16F901CA01015011093A
:100DD0006A3014F4605D01C0695CD8016C93232B08
:100DE000242B252B61F7B801C701B4DFA1960FB6FC
:100DF000F894DEBF0FBECDBFDF91CF911F910F9151
:100E0000FF90EF907F906F905F904F9008950F93B9
:100E10001F93CF93DF93EC019DDF8C016CEE72E0AA
:100E2000CE0198DF800F911FDF91CF911F910F911D
:100E300008958F929F92AF92BF92CF92DF92EF92DE
:100E4000FF920F931F93CF93DF937C01EB016C0113
:100E500082E0C80ED11C4701E5E08E0E911C00E037
:100E600010E0F60141916F0150E060E070E02AE08F
:100E7000CE0185DF5C01E881F9810190F081E02DF0
:100E80006EE2CE0119958A0D9B1D080F191FC8141B
:100E9000D90439F7F701458150E060E070E02AE0BD
:100EA000CE016DDF800F911FDF91CF911F910F91C8
:100EB000FF90EF90DF90CF90BF90AF909F908F907A
:100EC00008950E949C160F931F93CF93DF93EC011C
:100ED00088819981009729F02A813B81261737075D
:100EE00088F48B016F5F7F4F0E94B815009761F007
:100EF000998388831B830A832C813D81232B11F4E2
:100F0000FC01108281E001C080E0DF91CF911F9150
:100F10000F910895EF92FF920F931F93CF93DF935A
:100F2000EC017B018A01BA01CEDF28813981811170
:100F30000DC02115310519F0C9010E942015198233
:100F400018821D821C821B821A8206C01D830C839C
:100F5000B701C9010E94A916CE01DF91CF911F915F
:100F60000F91FF90EF900895BF92CF92DF92EF9292
:100F7000FF920F931F93CF93DF9300D000D0CDB794
:100F8000DEB7FC01208D243009F047C06A017B01E7
:100F90008C01B12C63E070E08B2D54DC811103C017
:100FA000F801B08E06C08831D9F3B394F4E0BF12D3
:100FB000F1CFF801808D843081F196E0EEE1F2E02E
:100FC000DE01119601900D929A95E1F7F701938158
:100FD0009F779C8394819D8395819E83B7016E5FEB
:100FE0007F4F8BDCB601F801808D78DCF801808DB5
:100FF00090E0982F882746E050E0BE016F5F7F4F5A
:101000008A5F9B4FD0DBF801128E118E20E8A6017B
:1010100062E0808D35DD81E001C080E026960FB66C
:10102000F894DEBF0FBECDBFDF91CF911F910F911E
:10103000FF90EF90DF90CF90BF900895CF93DF9314
:101040001F92CDB7DEB7FC01218D328D232B41F0ED
:10105000BE016F5F7F4F808D5CDC898190E002C0B4
:101060008FEF9FEF0F90DF91CF910895CF93DF9394
:10107000FC01218D328D2115310519F48FEF9FEF81
:1010800010C0EC014217530708F0A901888D84DCD9
:10109000181619069CF7298D3A8D281B390B3A8FA3
:1010A000298FDF91CF9108950F931F93CF93DF93F3
:1010B0001F92CDB7DEB7FC01218D328D232B59F065
:1010C0008C0141E050E0BE016F5F7F4F808D64DC9A
:1010D000181619061CF08FEF9FEF08C0F801818DDC
:1010E000928D0197928F818F898190E00F90DF918F
:1010F000CF911F910F9108950F931F93CF93DF937B
:10110000CDB7DEB728970FB6F894DEBF0FBECDBFC0
:101110008C01F801818D928D892B49F0D801ED91D8
:10112000FC910680F781E02DC8011995F2CF808DE2
:1011300016DC1816190654F548E050E0BE016F5F42
:101140007F4FD80158968C9127DC9C011816190600
:10115000DCF489819A81AB81BC81F801808B918B11
:10116000A28BB38B8D8190E0982F88272E81820FE0
:10117000911D958B848B2F8130E0322F222788851B
:10118000280F311D328F218FC90102C080E090E00D
:1011900028960FB6F894DEBF0FBECDBFDF91CF917A
:1011A0001F910F9108953FB7F89480918504909115
:1011B0008604A0918704B091880426B5A89B05C039
:1011C0002F3F19F00196A11DB11D3FBFBA2FA92FC6
:1011D000982F8827820F911DA11DB11DBC01CD0143
:1011E00042E0660F771F881F991F4A95D1F708952F
:1011F0002FB7F894609181047091820480918304E8
:10120000909184042FBF08951F920F920FB60F92F2
:1012100011242F933F938F939F93AF93BF9380910C
:10122000810490918204A0918304B0918404309150
:10123000800423E0230F2D3720F40196A11DB11D5A
:1012400005C026E8230F0296A11DB11D209380043E
:101250008093810490938204A0938304B0938404C8
:101260008091850490918604A0918704B0918804B0
:101270000196A11DB11D8093850490938604A093CF
:101280008704B0938804BF91AF919F918F913F9154
:101290002F910F900FBE0F901F901895FC01118297
:1012A000108213821282158214826115710549F031
:1012B000FB0101900020E9F73197AF01461B570B66
:1012C00029CE08951F920F920FB60F9211240BB6DC
:1012D0000F922F933F934F935F936F937F938F93CF
:1012E0009F93AF93BF93EF93FF9389E994E071DCF1
:1012F000FF91EF91BF91AF919F918F917F916F91EE
:101300005F914F913F912F910F900BBE0F900FBEA9
:101310000F901F9018951F920F920FB60F921124E5
:101320000BB60F922F938F939F93EF93FF93E091C0
:10133000A904F091AA048081E091AF04F091B00477
:1013400082FD12C090818091B2048F5F8F732091D3
:10135000B304821751F0E091B204F0E0E756FB4F7E
:10136000958F8093B20401C08081FF91EF919F918E
:101370008F912F910F900BBE0F900FBE0F901F906B
:101380001895FC019485FB018485981303C081E0C6
:10139000943009F480E0089521E0FC0184858430D4
:1013A00009F420E0822F08950895CF93DF931F92D0
:1013B000CDB7DEB76983DC01ED91FC910280F3814A
:1013C000E02D41E050E0BE016F5F7F4F19950F9017
:1013D000DF91CF910895DC01ED91FC91048CF58DA6
:1013E000E02D199591E089270895862F089581E0D1
:1013F000862708950F931F93CF93DF931F92CDB746
:10140000DEB78C01DC01ED91FC910480F581E02DCB
:101410001995892B49F0BE016F5F7F4FF8018485D4
:1014200078DA898190E002C08FEF9FEF0F90DF9113
:10143000CF911F910F910895FC018485ADCACF9380
:10144000DF931F92CDB7DEB741E050E0BE016F5F82
:101450007F4FFC018485A0DA181619061CF48981D7
:1014600090E002C08FEF9FEF0F90DF91CF91089532
:10147000FC018485843009F072CA80E090E0089510
:101480008F929F92AF92BF92CF92DF92EF92FF9294
:101490000F931F93CF93DF936C015B017A01FC01E3
:1014A000C485C43041F481E090E0F60193838283E7
:1014B00080E090E048C08A014130584010F000E0E0
:1014C00018E080E590E022DA8C2F80D34C0163E0B5
:1014D00070E08C2FB7D9D82F18DAD73111F0DC3162
:1014E00021F48016910668F302C000E010E080E568
:1014F00090E00CDA9801A50160E070E08C2F01D338
:1015000060E270E08C2F6CD262E070E08C2F9AD990
:1015100084FD0FC063E070E08C2F94D9811104C06A
:10152000F4D98C2F9EDABFCFF0D980E590E0EED9C8
:10153000EBCF40E162E070E08C2F7BD9E6D9012B44
:1015400009F4B1CFC701DF91CF911F910F91FF90A7
:10155000EF90DF90CF90BF90AF909F908F900895C5
:10156000CF92DF92EF92FF920F931F93CF93DF936F
:10157000CDB7DEB7AF970FB6F894DEBF0FBECDBFC5
:101580007C016A010AE912E01A8309831C861B8622
:1015900088EE93E0A0E0B0E08D879E87AF87B88BA0
:1015A0008AEC92E09A878987188F0F8B198E1A8E92
:1015B0001B8E1C8E84E089A31DA30CA31EA21FA258
:1015C00018A619A68091380590913905A0913A0581
:1015D000B0913B058CA79DA7AEA7BFA78B839C832B
:1015E000AD83BE8318861F82AE014C5D5F4FCE0176
:1015F00001960E94460181309105B1F4D701ED9129
:10160000FC910484F585E02D1BA70AA78EA19FA15C
:10161000A8A5B9A58CA79DA7AEA7BFA7A601BE0187
:10162000665D7F4FC7011995AF960FB6F894DEBF80
:101630000FBECDBFDF91CF911F910F91FF90EF9023
:10164000DF90CF900895FC018485843009F055CA5D
:1016500080E008958F929F92AF92BF92CF92DF92D7
:10166000EF92FF920F931F93CF93DF93CDB7DEB727
:101670002D970FB6F894DEBF0FBECDBF7C0100E002
:1016800010E038EE832E33E0932EA12CB12C44E4ED
:10169000C42E42E0D42E1C821B828D829E82AF8299
:1016A000B886DA82C9820D87CE010196CCDF81111E
:1016B00020C0F7014481558120E061E0802FE0D90E
:1016C00080E590E023D963E070E0802FBBD88331C0
:1016D00021F462E070E0802F83D117D9F701848173
:1016E0009581000F111FF801E858FB4F918380830B
:1016F00005C00F5F1F4F0430110569F62D960FB618
:10170000F894DEBF0FBECDBFDF91CF911F910F9137
:10171000FF90EF90DF90CF90BF90AF909F908F9011
:101720000895CF93DF93FC0124852430C9F0EC01A8
:101730008ADF843181F0882371F0883161F08C3147
:1017400061F4E881F9810480F581E02DCE011995DD
:1017500021E0892B19F420E001C021E0822F01C093
:1017600080E0DF91CF910895CF92DF92EF92FF92C8
:101770001F93CF93DF93FC011485143069F1EC01C2
:1017800080E590E0C3D868E070E0812F29D1BDD812
:101790002FDD6B017C01CE0156DF882399F061E0DB
:1017A00070E080E090E0AAD223DDDC01CB018C194F
:1017B0009D09AE09BF09883E9340A105B10558F3C4
:1017C0008C854FD9EC85F0E0EE0FFF1FE858FB4FFA
:1017D0001182108284E08C87DF91CF911F91FF905E
:1017E000EF90DF90CF9008954F925F926F927F922B
:1017F0008F929F92AF92BF92CF92DF92EF92FF9221
:101800001F93CF93DF93CDB7DEB72D970FB6F89424
:10181000DEBF0FBECDBF7C0198E7A92E94E0B92EA4
:1018200010E0C12CD12C28EE422E23E0522E612C48
:10183000712C34E4832E32E0932E1C821B824D8265
:101840005E826F8278869A8289821D87D5012D916A
:101850003D915D01F701848195812817390799F43D
:10186000CE010196F0DE843159F0CE010196EBDE17
:101870008C3149F4CE010196FBDD892B91F003C038
:10188000CC24C394D12C1F5F1430B9F6CD2869F451
:10189000D701ED91FC910480F581E02DC7011995E8
:1018A00004C0CE01019660DFEECF2D960FB6F894FE
:1018B000DEBF0FBECDBFDF91CF911F91FF90EF90A4
:1018C000DF90CF90BF90AF909F908F907F906F9060
:1018D0005F904F900895CF92DF92FF920F931F93E6
:1018E000CF93DF93FC012485243009F06CC06A019A
:1018F000EB018C01F12C8F2D00D9811103C0F8016F
:10190000F48607C08B7F8831D1F3F394F4E0FF12A3
:10191000F2CFF8018485843009F455C020910C027F
:1019200030910D022F5F3F4F11F420E030EC3093E7
:101930000D0220930C0240910C0250910D0220E008
:1019400061E09ED8F801F4848A818F3F51F48B8145
:101950008F3F91F48C818F3F79F48D818F3F61F4BB
:101960002FC0811109C08B81811106C08C8181112A
:1019700003C08D81882321F1C114D10409F180E5D0
:1019800090E00E948604BE016E5F7F4F8F2D0E9403
:101990007D04B6018F2D0E946E0464E070E08F2DEF
:1019A0001FD00E948504C8014EDE873179F061E0C6
:1019B00070E080E090E0A2D1C80145DE8111F3CF54
:1019C00084E0F801848780E090E002C081E090E04C
:1019D000DF91CF911F910F91FF90DF90CF900895ED
:1019E000CF93C82F462F61E070E00E94190461E098
:1019F00070E08C2F0E9422048111F9CFCF910895BD
:101A000090E0FC01E853FE4F2491FC01EE57FE4F9D
:101A10008491882399F090E0880F991FFC01E85980
:101A2000FE4FA591B491FC01E25BFE4F859194912C
:101A30008FB7F894EC91E22BEC938FBF0895CF937E
:101A4000DF932091480530914905232B79F0FC0163
:101A5000C0914405D091450560817181CE010E94FD
:101A6000B016009719F08C1B9D0B02C08FEF9FEFF3
:101A7000DF91CF910895AF92BF92CF92DF92EF9214
:101A8000FF920F931F93CF93DF931F921F92CDB7B7
:101A9000DEB77A836983BA01A901E981FA81F77017
:101AA000082F10E0000F111F0F561B4FD8018D910A
:101AB0009C918E0F9F1F2E0F3F1F2130384098F0B2
:101AC0007A015B0120E038E06901CE1ADF0AA60145
:101AD0000E94A903A7014C195D09B5016C0D7D1D7C
:101AE000F801808191810F900F90DF91CF911F912C
:101AF0000F91FF90EF90DF90CF90BF90AF900C943C
:101B0000A9039F92AF92BF92CF92DF92EF92FF9282
:101B10000F931F93CF93DF93982E8B015A01690186
:101B200064E270E00E942204E82EF12C65E270E08D
:101B3000892D0E942204FE2CEE24E82AE701C00F22
:101B4000D11F9E013770E92CF12CC701880F991F16
:101B5000AC0147575B4F7A01FA0180819181820F76
:101B6000931FA9014C0D5D1D4130584090F000E0DD
:101B700018E0021B130BA801B5010E94D303A601B4
:101B8000401B510BB501600F711FF70180819181DE
:101B900002C0A601B5010E94D303CC0DDD1D4D2F5F
:101BA00064E270E0892D0E9419044C2F65E270E018
:101BB000892DDF91CF911F910F91FF90EF90DF90D2
:101BC000CF90BF90AF909F900C941904FF920F9309
:101BD0001F93CF93DF93F82EC0E0D0E08F2D0E94AB
:101BE00058048C01892B21F08F2D0E945804EC01A0
:101BF000C017D10799F7CE01DF91CF911F910F91B7
:101C0000FF900895362F90E0FC01E85FFE4F44916D
:101C1000FC01E853FE4F2491FC01EE57FE4F9491D6
:101C2000992309F46AC0442309F454C050E0FA012E
:101C30003197E231F10508F04DC08827EE58FF4F8B
:101C40008F4F61C6809180008F7707C080918000A0
:101C50008F7D03C080918000877F809380003AC091
:101C600084B58F7702C084B58F7D84BD33C08091E9
:101C7000B0008F7703C08091B0008F7D8093B0005B
:101C800029C0809190008F7707C0809190008F7D50
:101C900003C080919000877F809390001BC080914B
:101CA000A0008F7707C08091A0008F7D03C0809136
:101CB000A000877F8093A0000DC0809120018F77C6
:101CC00007C0809120018F7D03C080912001877F14
:101CD00080932001E92FF0E0EE0FFF1FE25BFE4F43
:101CE000A591B4918FB7F894EC91311103C0209570
:101CF0002E2301C02E2B2C938FBF08958F929F927D
:101D0000AF92BF92CF92DF92EF92FF926B017C0174
:101D10004ADA4B015C01C114D104E104F104E9F099
:101D200042DADC01CB0188199909AA09BB09883E6E
:101D30009340A105B10578F321E0C21AD108E1086A
:101D4000F10888EE880E83E0981EA11CB11CC11416
:101D5000D104E104F10421F7DECFFF90EF90DF9092
:101D6000CF90BF90AF909F908F900895CF92DF92C9
:101D7000EF92FF921F93CF93DF93CDB7DEB76897B3
:101D80000FB6F894DEBF0FBECDBFFA012AE932E0EC
:101D90003A8329835FEF5B835C835D831E82388790
:101DA0002F83C280D380E480F580C986DA86EB86F3
:101DB000FC86FB0142815381648175814F87588B7A
:101DC000698B7A8B3C8B2B8BFC0182819381A48164
:101DD000B5818D8B9E8BAF8BB88F6CE271E080E00C
:101DE00090E08CDF1FB7F89480915605811120C0D8
:101DF000E7EBF1E08491EDEFF1E09491E82FF0E072
:101E0000EE0FFF1FE859FE4FA591B491EC91E92325
:101E100019F461E085E3F6DE85E3F2DD8CB58061DF
:101E20008CBD8CB580648CBD84E3EADD83E3E8DDA2
:101E3000809156058F5F809356051FBF249A80E5D9
:101E400090E00E94860460E880E090E00E94FC033D
:101E500065E58BE190E00E94FC0365E58AE190E096
:101E60000E94FC030E94850480E090E490938A0421
:101E70008093890480E090E690939204809391048B
:101E800080E098E490938C0480938B0480E098E643
:101E9000909394048093930480E090E590938E0453
:101EA00080938D0480E090E790939604809395044E
:101EB00080E098E59093900480938F0480E098E709
:101EC000909398048093970480E590E00E948604A4
:101ED00046E050E06EE072E089E090E00E94D303BB
:101EE00044E050E0BE016B5E7F4F8FE090E00E94C7
:101EF000D30344E050E0BE01675F7F4F81E090E094
:101F00000E94D30344E050E0BE016D5F7F4F85E047
:101F100090E00E94D3030E9485048F859889A98947
:101F2000BA898093380590933905A0933A05B09308
:101F30003B0568960FB6F894DEBF0FBECDBFDF91AC
:101F4000CF911F91FF90EF90DF90CF900895CF93A6
:101F5000DF931F92CDB7DEB76983DC01ED91FC9171
:101F60000280F381E02D41E050E0BE016F5F7F4FC2
:101F700019950F90DF91CF910895FC01818D928D7D
:101F80000895FC018489958908952AE932E0FC01CD
:101F900031832083FB014089518962897389FC0167
:101FA00042835383648375830895DC01ED91FC9132
:101FB000008CF18DE02D1994CF93DF931F92CDB754
:101FC000DEB76983DC01ED91FC910280F381E02DA5
:101FD00041E050E0BE016F5F7F4F19950F90DF9198
:101FE000CF910895AF92BF92CF92DF92FF920F935D
:101FF0001F93CF93DF938C015B01EA01FC01C6883C
:10200000D788F08C80E590E00E9486048F2DDEDD7D
:102010008C179D0718F48F2DD9DDEC019E01A501C9
:10202000B6018F2D6EDD0E948504F801868997899F
:102030008C0F9D1F978B868BCE01DF91CF911F91C7
:102040000F91FF90DF90CF90BF90AF900895CF9306
:10205000FC01C08D80E590E00E94860460E270E0A3
:102060008C2FBEDC62E070E08C2F0E94220484FD85
:1020700019C062E070E08C2F0E94220483FF0BC025
:1020800048E162E070E08C2F0E9419040E948504F0
:1020900080E090E011C00E94850480E590E00E94FD
:1020A0008604E0CF40E162E070E08C2F0E941904CA
:1020B0000E94850481E090E0CF910895FF920F93F4
:1020C0001F93CF93DF93FB01DC0157961C921E9266
:1020D00056975896FC908281811109C083818111A5
:1020E00006C08481811103C085818823C1F0411518
:1020F0005105A9F08A01EF0180E590E00E94860475
:10210000BE016E5F7F4F8F2D0E947D04B8018F2D21
:102110000E946E040E94850481E090E002C080E08D
:1021200090E0DF91CF911F910F91FF900895CF9292
:10213000DF92EF92FF920F931F93CF93DF93CDB770
:10214000DEB7AF970FB6F894DEBF0FBECDBF7C01F0
:102150006A010AE912E01A8309831C861B8688EE4D
:1021600093E0A0E0B0E08D879E87AF87B88B8AECC4
:1021700092E09A878987188F0F8B198E1A8E1B8E83
:102180001C8E84E089A31DA30CA31EA21FA218A667
:1021900019A68091380590913905A0913A05B09122
:1021A0003B058CA79DA7AEA7BFA78B839C83AD8360
:1021B000BE8318861F82AE014C5D5F4FCE01019633
:1021C0000E94460181309105B1F4D701ED91FC9157
:1021D0000088F189E02D1BA70AA78EA19FA1A8A5C1
:1021E000B9A58CA79DA7AEA7BFA7A601BE01665D36
:1021F0007F4FC7011995AF960FB6F894DEBF0FBE9B
:10220000CDBFDF91CF911F910F91FF90EF90DF90A5
:10221000CF900895CF93DF93EC01888D843061F0E7
:102220000E943105E88DF0E0EE0FFF1FE858FB4FEC
:102230001182108284E0888FDF91CF910895EF9210
:10224000FF921F93CF93DF93FC01208D243011F078
:1022500080E01CC07B01EC0110E0812F0E947D0515
:10226000811102C0188F05C08831E1F31F5F14305F
:10227000A1F7888D843061F3FD86EC861A8E198E65
:1022800020E0A70162E00E94400581E0DF91CF914C
:102290001F91FF90EF9008952F923F924F925F927F
:1022A0006F927F928F929F92AF92BF92CF92DF9266
:1022B000EF92FF920F931F93CF93DF93CDB7DEB7CB
:1022C0002E970FB6F894DEBF0FBECDBF7C016B0119
:1022D0005A018ADA08E714E020E0612C712C88EEBC
:1022E000282E83E0382E412C512C94E4892E92E044
:1022F000992E1C821B822D823E824F8258869A82A2
:1023000089822D87F801419151918F01F7018481D4
:1023100095814817590739F4CE0101962E8793D934
:102320002E858731E9F02F5F243019F7C3012E96EF
:102330000FB6F894DEBF0FBECDBFDF91CF911F91D6
:102340000F91FF90EF90DF90CF90BF90AF909F9054
:102350008F907F906F905F904F903F902F90089557
:10236000A501B601CE0101962E878AD8680E791E86
:102370002E85D9CF809144059091450561C3CF93B7
:10238000DF93CDB7DEB7A0970FB6F894DEBF0FBED0
:10239000CDBF789484B5826084BD84B5816084BDEE
:1023A00085B5826085BD85B5816085BD80916E00F3
:1023B000816080936E001092810080918100826024
:1023C0008093810080918100816080938100809161
:1023D00080008160809380008091B1008460809350
:1023E000B1008091B00081608093B0008091910035
:1023F0008260809391008091910081608093910030
:10240000809190008160809390008091A100826013
:102410008093A1008091A10081608093A1008091B0
:10242000A00081608093A000809121018260809350
:1024300021018091210181608093210180912001FF
:1024400081608093200180917A00846080937A007B
:1024500080917A00826080937A0080917A00816016
:1024600080937A0080917A00806880937A0010923D
:10247000C10084E0C5DA8AE992E09A8389834091B9
:1024800008025091090260910A0270910B024B837D
:102490005C836D837E839F878E8740910402509179
:1024A00005026091060270910702488B598B6A8B76
:1024B0007B8B9C8F8B8F8091000290910102A09169
:1024C0000202B09103028D8F9E8FAF8FB8A3AE0131
:1024D0004F5F5F4FBE01625F7F4FCE014B9646DC80
:1024E0008AE495E0B7D8E091A904F091AA0482E0CB
:1024F0008083E091A504F091A6041082E091A704E6
:10250000F091A8048FEC80831092B104E091AD04A7
:10251000F091AE0486E08083E091AB04F091AC04CE
:10252000808180618083E091AB04F091AC04808174
:1025300088608083E091AB04F091AC048081806876
:102540008083E091AB04F091AC0480818F7D808327
:102550006FEE72E089E994E00E94070798EE892EF9
:1025600093E0992EA12CB12C24E4C22E22E0D22E8D
:102570008AE495E039D988E7E82E84E0F82E10E067
:102580001C821B828D829E82AF82B886DA82C982CB
:102590001D87F701219131917F0180914E05909126
:1025A0004F052817390731F5CE0101964CD88731F0
:1025B00011F08C31F9F4CE0101960E94380A892B72
:1025C000C9F08B819C81998B888B8D819E81AF8195
:1025D000B8858A8B9B8BAC8BBD8B89859A85AB85A7
:1025E000BC858E8B9F8BA88FB98FDF86CE868D851D
:1025F0008A8F0CC01F5F143019F6198A188A8A8ACC
:102600009B8AAC8ABD8ADF86CE861A8F8A8D8430FB
:1026100009F4EEC0CE010E9684D8882309F4E8C0F0
:10262000CE010E960E94380A892BA1F3CE010E9698
:102630000E941F0AF82E00914805109149050436A2
:102640001105E8F489831A820F5F1F4FB80184E4F3
:1026500095E00E946307882391F020914405309112
:1026600045058091480590914905BE016F5F7F4FF8
:10267000820F931F6ED31093490500934805FAE02B
:10268000FF12C8CF4091480550914905609144051B
:102690007091450589E994E00E9487056CEE72E02F
:1026A00089E994E00E94AA066BEF72E0CE010E96D3
:1026B0000E9407076BE073E0CE010E960E940707A9
:1026C0006CEE72E0CE010E960E94AA0663E273E001
:1026D000CE010E960E9407076AE273E0CE010E96C5
:1026E0000E94070761E373E0CE010E960E94070780
:1026F00066E573E0CE010E960E9407076EE573E073
:10270000CE010E960E94070765E673E0CE010E9695
:102710000E94070764E873E0CE010E960E94070747
:1027200068EB73E0CE010E960E94070760E174E04B
:10273000CE010E960E94070768E474E0CE010E9663
:102740000E9407076BE074E0CE010E960E94070717
:1027500060E574E0CE010E960E94070768E574E01C
:10276000CE010E960E94070761E070E080E090E0E5
:10277000C5DACE010E960E94B40B60E674E0CE017D
:1027800001960E944E09CE01019659D98C0189818A
:102790009A8156D1101611064CF461E084E032DAC9
:1027A00063E674E089E994E00E9407076AE674E052
:1027B000CE0101960E944E09CE01019640D98C01AE
:1027C00089819A813DD1101611064CF460E084E0B5
:1027D00019DA6EE674E089E994E00E94070740E0A8
:1027E00050E06EEE72E084E495E00E948A0712CF1A
:1027F0000E947106BDCEE7E5F5E08AE992E091839B
:1028000080831282138214821582E9E9F4E0138234
:10281000128248EE53E060E070E0448355836683A3
:10282000778328E632E03183208325EC30E035875A
:10283000248724EC30E03787268720EC30E0318B8A
:10284000208B21EC30E0338B228B22EC30E0358B77
:10285000248B26EC30E0378B268B118E128E138E54
:10286000148EEDE5F5E09183808312821382148249
:102870001582E3E6F5E0918380831282138214824D
:102880001582E9E6F5E09183808312821382148237
:102890001582EFE6F5E09183808312821382148221
:1028A0001582E6E3F5E0918380831282138214821D
:1028B0001582EEE3F5E09183808312821382148205
:1028C0001582E5E7F5E091838083128213821482FA
:1028D0001582E0E5F5E091838083128213821482F1
:1028E0001582EAE4F5E01382128288E892E091838F
:1028F000808384E590E0958384836EEE72E084E4C7
:1029000095E00C944E09EE0FFF1F881F8BBF0790B8
:10291000F691E02D1994CF93DF938230910510F456
:1029200082E090E0E0917D05F0917E0520E030E0CE
:10293000C0E0D0E0309711F140815181481759072C
:10294000C0F04817590761F482819381209719F0EC
:102950009B838A832BC090937E0580937D0526C040
:102960002115310519F04217530718F49A01BE01D9
:10297000DF01EF010280F381E02DDCCF211531056D
:1029800009F1281B390B2430310590F412968D91F2
:102990009C9113976115710521F0FB01938382834C
:1029A00004C090937E0580937D05FD01329644C05E
:1029B000FD01E20FF31F81939193225031092D9372
:1029C0003C933AC020917B0530917C05232B41F448
:1029D000209116023091170230937C0520937B05DD
:1029E00020911402309115022115310541F42DB7C3
:1029F0003EB74091180250911902241B350BE0910B
:102A00007B05F0917C05E217F307A0F42E1B3F0B2A
:102A10002817390778F0AC014E5F5F4F2417350750
:102A200048F04E0F5F1F50937C0540937B058193C8
:102A3000919302C0E0E0F0E0CF01DF91CF910895E3
:102A40000F931F93CF93DF93009709F48CC0FC0181
:102A500032971382128200917D0510917E05011537
:102A6000110581F420813181820F931F20917B0514
:102A700030917C052817390779F5F0937C05E093B0
:102A80007B0571C0D80140E050E0AE17BF0750F49D
:102A900012962D913C911397AD012115310509F145
:102AA000D901F3CF9D01DA013383228360817181E3
:102AB000860F971F8217930769F4EC0128813981EB
:102AC000260F371F2E5F3F4F318320838A819B81E2
:102AD00093838283452B29F4F0937E05E0937D0553
:102AE00042C01396FC93EE931297ED0149915991D0
:102AF0009E01240F351FE217F30771F48081918145
:102B0000840F951F029611969C938E9382819381D8
:102B100013969C938E931297E0E0F0E0D801129602
:102B20008D919C911397009719F0F8018C01F6CFC5
:102B30008D919C9198012E5F3F4F820F931F2091A2
:102B40007B0530917C052817390769F4309729F403
:102B500010927E0510927D0502C01382128210939E
:102B60007C0500937B05DF91CF911F910F91089514
:102B70006F927F928F929F92AF92BF92CF92DF928D
:102B8000EF92FF920F931F93CF93DF93EC01009787
:102B900081F4CB01DF91CF911F910F91FF90EF90C6
:102BA000DF90CF90BF90AF909F908F907F906F906D
:102BB000B2CEFC01E60FF71F9C0122503109E2174B
:102BC000F30708F4A8C0D9010D911C9111970617BD
:102BD0001707A8F00530110508F49BC0C801049739
:102BE0008617970708F495C002501109061B170BAA
:102BF000019311936D937C93CF0122DF8AC05B0117
:102C0000A01AB10A4C01800E911EA0917D05B091D1
:102C10007E0540E050E0E12CF12C109709F44AC009
:102C2000A815B905D1F56D907C901197630182E0EC
:102C3000C80ED11CCA14DB0480F1A3014A195B0938
:102C40006A0182E0C80ED11C1296BC9012971396AE
:102C5000AC91B5E0CB16D10440F0B282A38351838E
:102C60004083D9016D937C930AC00E5F1F4FC3014F
:102C7000800F911FF90191838083EB2DFA2FE114CE
:102C8000F10431F0D7011396FC93EE93129741C0F3
:102C9000F0937E05E0937D053CC08D919C9111974A
:102CA0004817590708F4AC017D0112960D90BC91AC
:102CB000A02DB3CF80917B0590917C058815990557
:102CC000E1F446175707C8F4809114029091150259
:102CD000009741F48DB79EB74091180250911902A8
:102CE000841B950BE817F907B0F4F0937C05E0938B
:102CF0007B05F901718360830CC0CB010CDE7C0184
:102D0000009749F0A801BE011BD0CE0199DEC70192
:102D100004C0CE0102C080E090E0DF91CF911F910E
:102D20000F91FF90EF90DF90CF90BF90AF909F906A
:102D30008F907F906F90089581E090E0F8944CC060
:102D4000FB01DC0102C001900D9241505040D8F7C8
:102D50000895FB01DC0101900D920020E1F7089538
:102D6000FB0151915523A9F0BF01DC014D9145179D
:102D70004111E1F759F4CD010190002049F04D9146
:102D800040154111C9F3FB014111EFCF81E090E003
:102D900001970895A1E21A2EAA1BBB1BFD010DC0CD
:102DA000AA1FBB1FEE1FFF1FA217B307E407F507FB
:102DB00020F0A21BB30BE40BF50B661F771F881FD7
:102DC000991F1A9469F760957095809590959B016D
:102DD000AC01BD01CF01089511E0C8E0D1E000E0F1
:102DE00005C0802FFE018FDD2196011DC930D1075E
:0A2DF00080E00807B1F7F894FFCF68
:102DFA00C0A80166C0A80101FFFFFF0000C0DEAD48
:102E0A00BEEFFEED00007F0580000100000001001A
:102E1A005E000000000000006107610761076107AA
:102E2A006107610761076107610761076107610758
:102E3A0000000000D509400A380A1F0AFA09D40915
:102E4A006B0CB00A1C0AB40B910BCC09F709F509F3
:102E5A00C109EB09000000000A068705D405B2057E
:102E6A00C605500600000000610787056107610773
:102E7A006107610700000000DC0F4C112A0B0000FB
:102E8A000000610787050000000019070000000024
:102E9A0061070000000061076107610761076107B8
:102EAA0061076107610761076107610761076107D8
:102EBA0061076107610700000000A70FF20FBD0F4D
:102ECA0054081E08A9061F110A115E109710271030
:102EDA007C083608D50FC50FC10FB4070D0A007359
:102EEA006572766572746573743100485454502F54
:102EFA00312E3120323030204F4B00436F6E7465D3
:102F0A006E742D547970653A20746578742F6874DC
:102F1A006D6C003C48544D4C3E003C484541443E93
:102F2A00003C5449544C453E41726475696E6F20A9
:102F3A00474554207465737420706167653C2F544B
:102F4A0049544C453E003C2F484541443E003C42D2
:102F5A004F44593E003C48313E48544D4C20666F20
:102F6A00726D20474554206578616D706C653C2F01
:102F7A0048313E003C464F524D20414354494F4E42
:102F8A003D22687474703A2F2F3139322E31363817
:102F9A002E312E3130323A383422206D6574686F02
:102FAA00643D676574203E0050696E203420226FAC
:102FBA006E22206F7220226F6666223A203C494EAA
:102FCA0050555420545950453D54455854204E416B
:102FDA004D453D224C4544222056414C55453D2203
:102FEA00222053495A453D22323522204D41584C20
:102FFA00454E4754483D223530223E3C42523E001F
:10300A003C494E50555420545950453D5355424D14
:10301A004954204E414D453D227375626D697422B3
:10302A002056414C55453D224368616E67652050E4
:10303A00696E203421223E003C2F464F524D3E00FD
:10304A003C2F424F44593E003C2F48544D4C3E00C1
:10305A006F6E004C6564204F6E006F6666004C65AB
:06306A0064204F666600C1
:00000001FF
