:1000000007C1000036C1000034C1000032C1000049
:1000100030C100002EC100002CC100002AC1000028
:1000200028C1000026C1000024C1000022C1000038
:1000300020C100001EC100001CC100001AC1000048
:1000400018C1000016C1000014C1000012C1000058
:1000500010C100000EC100000CC100000C94FB0D8B
:1000600008C100000C94C00E0C94970E02C1000051
:1000700000C10000FEC00000FCC00000FAC000008B
:10008000F8C00000F6C00000F4C00000F2C000009C
:100090000C946E0E0C94450EECC00000EAC00000FB
:1000A000E8C00000E6C00000E4C00000E2C00000BC
:1000B000E0C00000DEC00000DCC00000DAC00000CC
:1000C000D8C00000D6C00000D4C00000D2C00000DC
:1000D000D0C00000CEC00000CCC00000CAC00000EC
:1000E000C8C00000D310D610C510C910CD100D1116
:1000F000DA10DE10E410E810EC10F210F610FA102E
:100100000D1100110411081100000A0B02090C0D59
:100110000E080703040100000000000000000000BA
:1001200000000000000000000000000000000000CF
:10013000000000001211100000000000000000008C
:1001400000000000000000000000000000000000AF
:100150002200250028002B002E003100340002016F
:100160000000050108010B01000021002400270008
:100170002A002D00300033000101000004010701B6
:100180000A0105050505070508080808020202021C
:100190000A0A080804040404010101010101010123
:1001A0000303030303030303040707070C0C0C0CEE
:1001B0000C0C0C0C020202020606060606060606D7
:1001C0000B0B0B0B0B0B0B0B010210202008081064
:1001D00020401020408002010201080402010102B7
:1001E0000408102040808040201008040201800490
:1001F00002018040201008040201080402010102EB
:100200000408102040800102040810204080A91337
:1002100011241FBECFEFD1E2DEBFCDBF00E00CBF87
:1002200013E0A0E0B2E0E6E4FDE200E00BBF02C0B4
:1002300007900D92A032B107D9F724E0A0E2B3E015
:1002400001C01D92A03CB207E1F711E0C8E0D1E087
:1002500000E006C021970109802FFE010E94521480
:10026000C730D10780E00807A9F70E94B6110C94A7
:10027000A116C6CECF93DF931F92CDB7DEB76983A9
:10028000DC01ED91FC910280F381E02D41E050E032
:10029000BE016F5F7F4F19950F90DF91CF91089549
:1002A000DC01ED91FC91048CF58DE02D199591E028
:1002B00089270895862F089581E0862708952C9A2E
:1002C00008952C9808958EBD00000DB407FEFDCF53
:1002D0008EB508952F923F924F925F926F927F92C8
:1002E0008F929F92AF92BF92CF92DF92EF92FF9246
:1002F0000F931F93CF93DF93CDB7DEB765970FB6FC
:10030000F894DEBF0FBECDBF7C016B014A01FB013B
:10031000DB018D918111FDCF20E030E080E090E0A5
:100320005AE041914423F9F0843091054CF54E3266
:1003300069F42F3F310509F01CF5D401A80FB91F4E
:1003400012962C93019620E030E0EBCF529FB00143
:10035000539F700D1124242F440F330B2053310968
:10036000260F371FDECF2F3F310509F04CF48430C4
:10037000910534F4F401E80FF91F228381E020C0D5
:10038000F701428153816481758180918504909148
:100390008604A0918704B0918804481759076A071A
:1003A0007B0709F417C10E94EF0D8701085F1F4FFB
:1003B0006F7077277C5FC80148D7813019F080E0E3
:1003C00090E0CEC18CED92E09A838983F70182811F
:1003D0009381A481B5818B839C83AD83BE8345E3E8
:1003E00050E0BE016F5F7F4FC8016AD6892B19F4B8
:1003F000C12CD12CEBC00E94EF0DF70177836683EF
:1004000042E050E0B7016A5F7F4FC801F8D581E054
:1004100090E09A83898342E050E0BE016F5F7F4F96
:10042000C801EDD580E091E09A83898342E050E0F5
:10043000BE016F5F7F4FC801E2D51A82198242E088
:1004400050E0BE016F5F7F4FC801D9D542E050E058
:10045000BE016F5F7F4FC801D2D542E050E0BE01C0
:100460006F5F7F4FC801CBD52601F20180818823C1
:1004700019F1C6015C01FC0120810196211114C013
:10048000250135016C187D081614170484F46D8657
:1004900041E050E0BE01635F7F4FC801B0D5A301CA
:1004A000B601C801ACD503C02E3221F7E9CF6501F2
:1004B000FFEFCF1ADF0AD9CF1D8641E050E0BE0121
:1004C000635F7F4FC8019BD5C12CDD24D394DA82B2
:1004D000C98242E050E0BE016F5F7F4FC8018FD5F7
:1004E000DA82C98242E050E0BE016F5F7F4FC801EF
:1004F00086D5C801B7D5892B09F47ACF83E0A82E19
:10050000B12C3401F2E06F0E711C0E94EF0D1B0143
:100510002C01C80123D518161906A4F00E94EF0D6E
:10052000DC01CB0182199309A409B50989389341EB
:10053000A105B105D0F462E370E080E090E00E9494
:100540001E10E7CFF7014281538164817581818D4F
:10055000928DA38DB48D481759076A077B0741F424
:10056000858D968DC59721F406C02FEF3FEF24C0EF
:100570002EEF3FEF21C0F70181A192A10C970CF45F
:10058000ECC04CE050E0BE016F5F7F4FC801A0D4CB
:100590008B819C819827892798279A8B898BF701D3
:1005A0004681578129813A8142175307B1F0C8012A
:1005B0000E94A80C2CEF3FEF6901F1E0AF1AB108DF
:1005C00029F02FEFC216D20609F49FCFC80129D611
:1005D000C601C6C08EEF9FEFC3C097FFE8CF8F70F4
:1005E0009270892B31F0C8010E94A80C2BEF3FEFCD
:1005F000E3CFCF80D884DC24CD24DC24C114D10403
:1006000031F4C8010E94A80C2AEF3FEFD5CF812C0E
:10061000912C8D819E819827892798278816990685
:1006200010F541E050E0BE01635F7F4FC80150D438
:100630008D8581110FC08D858111F3CFC80166D4DE
:10064000C80164D4C80162D4C80160D4FFEF8F1A16
:100650009F0ADFCF8D859FEF980F9D87882359F3E1
:10066000C80154D4F7CF812C912C41E050E0BE0159
:100670006D5E7F4FC8012CD48B89982F907C59F4E4
:10068000882361F08B899FEF980F9B8B882331F033
:10069000C8013CD4F7CFC80139D41B8A8B8981119A
:1006A000E4CF42E050E0BE01615F7F4FC80110D44B
:1006B00042E050E0BE01635F7F4FC80109D4C8012A
:1006C00025D4C80123D4C80121D4C8011FD442E0D5
:1006D00050E0BE016F5E7F4FC801FAD38F859889C5
:1006E00081159140E9F42D853E8532272327322755
:1006F00021303105A9F489899A898115944031F016
:10070000C8010E94A80C27EF3FEF56CF44E050E00D
:10071000B301C8012C8B3D8BDBD32C893D894CCF99
:10072000412C512C89899A8998278927982748161E
:10073000590630F4C801EAD38FEF481A580AF2CFAD
:10074000EFEF8E1A9E0A8C149D0409F08ECFC8011B
:100750000E94A80C26EF3FEF2FCF2DEF3FEF2CCFBD
:1007600065960FB6F894DEBF0FBECDBFDF91CF9177
:100770001F910F91FF90EF90DF90CF90BF90AF90BF
:100780009F908F907F906F905F904F903F902F90B1
:100790000895CF92DF92EF92FF920F931F93CF9322
:1007A000DF93CDB7DEB7AF970FB6F894DEBF0FBEBD
:1007B000CDBF7C016A010CED12E01A8309831C860F
:1007C0001B8688EE93E0A0E0B0E08D879E87AF8720
:1007D000B88B86E492E09A87898784E08D8B198FA5
:1007E000088F1A8E1B8E1C8E1D8E1DA30CA31EA29D
:1007F0001FA218A619A680917D0490917E04A09155
:100800007F04B09180048CA79DA7AEA7BFA78B8360
:100810009C83AD83BE8318861F82AE014C5D5F4F03
:10082000CE01019657DD81309105B1F4D701ED91EC
:10083000FC910484F585E02D1BA70AA78EA19FA13A
:10084000A8A5B9A58CA79DA7AEA7BFA7A601BE0165
:10085000665D7F4FC7011995AF960FB6F894DEBF5E
:100860000FBECDBFDF91CF911F910F91FF90EF9001
:10087000DF90CF900895CF92DF92EF92FF920F9387
:100880001F93CF93DF93EC017A018B016C01C40EAF
:10089000D51ECC15DD0579F014DD8FE014DD8D2F2C
:1008A00012DD8C2F10DD219680E00DDDF8018193A3
:1008B0008F0105DDEECFC701DF91CF911F910F9121
:1008C000FF90EF90DF90CF900895CF92DF92EF925C
:1008D000FF920F931F93CF93DF93EC017A018B016B
:1008E0006C01C40ED51ECC15DD0571F0EADC80EF7D
:1008F000EADC8D2FE8DC8C2FE6DC2196F801819173
:100900008F01E1DCDCDCEFCFC701DF91CF911F91DC
:100910000F91FF90EF90DF90CF9008951F93CF93AA
:10092000DF931F921F92CDB7DEB7182F6A8399838A
:10093000C8DC80EFC8DC9981892FC5DC812FC3DC3E
:100940006A81862FC0DCBBDC81E00F900F90DF91C5
:10095000CF911F9108959B0190E00496982F8827CE
:10096000642F820F931FDACF0F931F93CF93DF93E0
:100970001F92CDB7DEB790E00496982F88278C01A0
:10098000060F171F9EDC8FE09EDC812F9CDC802FE2
:100990009ADC80E098DC898392DC89810F90DF917A
:1009A000CF911F910F9108951F93CF93DF93182F2D
:1009B00066E270E0D9DFC82FD0E067E270E0812FF7
:1009C000D3DFDC2FCC279E01282BC901DF91CF91EB
:1009D0001F9108951F93CF93DF93182F60E270E06B
:1009E000C3DFC82FD0E061E270E0812FBDDFDC2FD4
:1009F000CC279E01282BC901DF91CF911F9108952B
:100A000008958CBD9DBD0895EF92FF921F93CF93E3
:100A1000DF93182F7B0180E590E0F3DF68E270E060
:100A2000812FA2DFC82FD0E069E270E0812F9CDF28
:100A3000DC2FCC27BE01682B21E030E0A701812FFD
:100A40000E94570F81E090E0DF91CF911F91FF90BE
:100A5000EF9008950F931F93CF93DF931F92CDB71D
:100A6000DEB78C01DC01ED91FC910480F581E02D75
:100A70001995892B49F0BE016F5F7F4FF80184857E
:100A8000C3DF898190E002C08FEF9FEF0F90DF916D
:100A9000CF911F910F910895FF920F931F93CF93C2
:100AA000DF93F82E80E590E0ACDFC0E0D0E08F2D42
:100AB0007BDF8C01892B19F08F2D76DFEC01C017BD
:100AC000D107A9F7CE01DF91CF911F910F91FF9030
:100AD0000895FC018485843009F0DECF80E090E049
:100AE0000895AF92BF92DF92EF92FF920F931F9300
:100AF000CF93DF93D82E7B018A0180E590E081DFE0
:100B0000C0E0D0E08D2D50DF5C01892B19F08D2DD8
:100B10004BDFEC01CA15DB05A9F7209791F463E0E0
:100B200070E08D2D21DF8431B9F18823A9F1C1E076
:100B3000D0E08C3111F4C0E0D0E0D195C195D1095D
:100B40002BC00C171D070CF4E8011C161D0624F51C
:100B500068E270E08D2D08DF082F10E069E270E098
:100B60008D2D02DF102F0027082B9E01A701B80151
:100B70008D2D0E94570F0C0F1D1F412F68E270E052
:100B80008D2DE9DE402F69E270E08D2DE4DE60E41A
:100B900070E08D2D0E94080FCE01DF91CF911F9143
:100BA0000F91FF90EF90DF90BF90AF900895FC0100
:100BB000848597CFCF93DF931F92CDB7DEB741E007
:100BC00050E0BE016F5F7F4FFC0184858ADF1816FD
:100BD00019061CF4898190E002C08FEF9FEF0F90FF
:100BE000DF91CF910895CF93C82F80E590E009DF82
:100BF00060E170E08C2F0E94080F4FEF62E070E020
:100C00008C2FCF91A8CE8F929F92AF92BF92CF920E
:100C1000DF92EF92FF920F931F93CF936C015B01D2
:100C20007A01FC01C485C43041F481E090E0F60112
:100C30009383828380E090E046C08A01413058402F
:100C400010F000E018E080E590E0DBDE8C2F0E94E1
:100C500002104C0163E070E08C2F86DE873111F0CA
:100C60008C3121F48016910670F302C000E010E090
:100C700080E590E0C6DE9801A50160E070E08C2F71
:100C80000E949D0F60E270E08C2F0E94080F62E0CE
:100C900070E08C2F69DE84FD0DC063E070E08C2F66
:100CA00063DE811103C08C2F9EDFBFCF80E590E013
:100CB000A8DEEDCF40E162E070E08C2F4CDE012B2E
:100CC00009F4B3CFC701CF911F910F91FF90EF901F
:100CD000DF90CF90BF90AF909F908F900895CF936B
:100CE000C82F80E590E08DDE63E070E08C2FCF911F
:100CF0003BCECF92DF92FF920F931F93CF93DF9360
:100D00008C01EB016A01FC018485843009F074C018
:100D1000F12C8F2DE4DF811103C0F801F48607C0A8
:100D20008B7F8831D1F3F394F4E0FF12F2CFF80116
:100D30008485843009F460C0209100023091010262
:100D40002F5F3F4F11F420E030EC309301022093ED
:100D50000002409100025091010261E00E94180FD0
:100D6000F801F4848A818F3F51F48B818F3F91F495
:100D70008C818F3F79F48D818F3F61F43AC081116E
:100D800009C08B81811106C08C81811103C08D81C6
:100D9000882379F1C114D10461F180E590E031DE5E
:100DA000BE016E5F7F4F8F2D90E0982F882744E023
:100DB00050E0845F9B4F89DD4D2D60E170E08F2D09
:100DC000CADD4C2D61E170E08F2DC5DD64E070E07F
:100DD0008F2D0E94080FC80162D2873181F061E037
:100DE00070E080E090E00E941E10C80158D281118E
:100DF000F2CF84E0F801848780E090E002C081E0D7
:100E000090E0DF91CF911F910F91FF90DF90CF90F5
:100E10000895CF93DF931F92CDB7DEB76983DC01CE
:100E2000ED91FC910280F381E02D41E050E0BE01A4
:100E30006F5F7F4F19950F90DF91CF910895FC015F
:100E4000818D928D0895FC018589968908952CEDF8
:100E500032E0FC0131832083FB014189528963899F
:100E60007489FC0142835383648375830895DC0194
:100E7000ED91FC91008CF18DE02D1994CF93DF93CF
:100E80001F92CDB7DEB76983DC01ED91FC91028042
:100E9000F381E02D41E050E0BE016F5F7F4F199577
:100EA0000F90DF91CF910895FC019485FB0184851B
:100EB000981303C081E0943009F480E0089521E0A4
:100EC000FC018485843009F420E0822F0895089580
:100ED000CF93DF93FC01218D328D2115310519F45B
:100EE0008FEF9FEF10C0EC014217530708F0A901E4
:100EF0008C85F7DD181619069CF7298D3A8D281B6D
:100F0000390B3A8F298FDF91CF9108950F931F935B
:100F1000CF93DF931F92CDB7DEB7FC01218D328DC9
:100F2000232B59F08C0141E050E0BE016F5F7F4FF1
:100F30008485D7DD181619061CF08FEF9FEF08C0C7
:100F4000F801818D928D0197928F818F898190E038
:100F50000F90DF91CF911F910F9108950F931F93E1
:100F6000CF93DF93CDB7DEB728970FB6F894DEBFE7
:100F70000FBECDBF8C01DC01ED91FC910284F385A5
:100F8000E02D1995F801848587DD1816190654F5AA
:100F900048E050E0BE016F5F7F4FD8011C968C91F6
:100FA000A0DD9C0118161906DCF489819A81AB81B9
:100FB000BC81F801818B928BA38BB48B8D8190E0E7
:100FC000982F88272E81820F911D968B858B2F81DC
:100FD00030E0322F22278885280F311D328F218F54
:100FE000C90102C080E090E028960FB6F894DEBFF9
:100FF0000FBECDBFDF91CF911F910F910895AF929A
:10100000BF92CF92DF92FF920F931F93CF93DF9304
:101010008C015B01EA01FC01C788D08CF48480E577
:1010200090E0EFDC8F2DEED78C179D0718F48F2DF5
:10103000E9D7EC019E01A501B6018F2D7ED7E0DC3A
:10104000F8018789908D8C0F9D1F908F878BCE0123
:10105000DF91CF911F910F91FF90DF90CF90BF90C4
:10106000AF900895CF93FC01C48580E590E0C9DC82
:1010700060E270E08C2FCCD662E070E08C2F74DCE4
:1010800084FD14C062E070E08C2F6EDC83FF09C029
:1010900048E162E070E08C2F5EDCB2DC80E090E042
:1010A0000DC0AEDC80E590E0ACDCE6CF40E162E074
:1010B00070E08C2F50DCA4DC81E090E0CF910895AB
:1010C000EF92FF921F93CF93DF93EB017A01FC0124
:1010D000108E178A14858A81811109C08B81811134
:1010E00006C08C81811103C08D81882301F1E11438
:1010F000F104E9F080E590E084DCBE016E5F7F4F93
:10110000812F90E0982F882744E050E0845F9B4F28
:10111000DCDB4F2D60E170E0812F1DDC4E2D61E1A5
:1011200070E0812F18DC6CDC81E090E002C080E090
:1011300090E0DF91CF911F91FF90EF900895CF92B3
:10114000DF92EF92FF920F931F93CF93DF93CDB770
:10115000DEB7AF970FB6F894DEBF0FBECDBF7C01F0
:101160006A010CED12E01A8309831C861B8688EE47
:1011700093E0A0E0B0E08D879E87AF87B88B86E4D0
:1011800092E09A87898784E08D8B198F088F1A8E59
:101190001B8E1C8E1D8E1DA30CA31EA21FA218A6A3
:1011A00019A680917D0490917E04A0917F04B09156
:1011B00080048CA79DA7AEA7BFA78B839C83AD831C
:1011C000BE8318861F82AE014C5D5F4FCE01019633
:1011D00081D881309105B1F4D701ED91FC9100885F
:1011E000F189E02D1BA70AA78EA19FA1A8A5B9A5EB
:1011F0008CA79DA7AEA7BFA7A601BE01665D7F4FC6
:10120000C7011995AF960FB6F894DEBF0FBECDBFDC
:10121000DF91CF911F910F91FF90EF90DF90CF90D2
:101220000895CF93DF93EC018C85843059F0DBDC9B
:10123000EC85F0E0EE0FFF1FE05EFC4F11821082A4
:1012400084E08C87DF91CF910895EF92FF921F93F6
:10125000CF93DF93FC012485243011F080E019C086
:101260007B01EC0110E0812F3ADD811102C01C8767
:1012700005C08831E1F31F5F1430A9F78C858430F5
:1012800069F3FE86ED861A8E198EA70162E0D0D52D
:1012900081E0DF91CF911F91FF90EF900895FC01C5
:1012A0008485843009F01BCD80E008958F929F9251
:1012B000AF92BF92CF92DF92EF92FF920F931F9364
:1012C000CF93DF93CDB7DEB72D970FB6F894DEBF7F
:1012D0000FBECDBF7C0100E010E038EE832E33E07E
:1012E000932EA12CB12C46E8C42E42E0D42E1C82B1
:1012F0001B828D829E82AF82B886DA82C9820D8778
:10130000CE010196CCDF81111FC0F70144815581C8
:1013100061E0802F8DD580E590E073DB63E070E0C5
:10132000802F22DB833121F462E070E0802F70D5C2
:1013300067DBF70184819581000F111FF801E05EE2
:10134000FC4F9183808305C00F5F1F4F0430110550
:1013500071F62D960FB6F894DEBF0FBECDBFDF91AC
:10136000CF911F910F91FF90EF90DF90CF90BF90A2
:10137000AF909F908F900895CF93DF93FC012485C9
:101380002430C9F0EC018BDF843181F0882371F0C7
:10139000883161F08C3161F4E881F9810480F58154
:1013A000E02DCE01199521E0892B19F420E001C030
:1013B00021E0822F01C080E0DF91CF910895CF928C
:1013C000DF92EF92FF921F93CF93DF93FC0114857E
:1013D000143069F1EC0180E590E013DB68E070E027
:1013E000812F16D50DDBFBD36B017C01CE0157DFBE
:1013F000882399F061E070E080E090E01FD6EFD3A1
:10140000DC01CB018C199D09AE09BF09883E9340D0
:10141000A105B10558F38C85E6DBEC85F0E0EE0F15
:10142000FF1FE05EFC4F1182108284E08C87DF9109
:10143000CF911F91FF90EF90DF90CF9008954F9242
:101440005F926F927F928F929F92AF92BF92CF9254
:10145000DF92EF92FF921F93CF93DF93CDB7DEB76A
:101460002D970FB6F894DEBF0FBECDBF7C0190E282
:10147000A92E93E0B92E10E0C12CD12C28EE422EDB
:1014800023E0522E612C712C36E8832E32E0932E0D
:101490001C821B824D825E826F8278869A8289824C
:1014A0001D87D5012D913D915D01F70184819581C5
:1014B0002817390799F4CE010196F1DE843159F0ED
:1014C000CE010196ECDE8C3149F4CE01019601DBB0
:1014D000892B91F003C0CC24C394D12C1F5F14300E
:1014E000B9F6CD2869F4D701ED91FC910480F5811E
:1014F000E02DC701199504C0CE01019660DFEECF43
:101500002D960FB6F894DEBF0FBECDBFDF91CF9101
:101510001F91FF90EF90DF90CF90BF90AF909F9082
:101520008F907F906F905F904F9008952F923F9291
:101530004F925F926F927F928F929F92AF92BF92E3
:10154000CF92DF92EF92FF920F931F93CF93DF938F
:10155000CDB7DEB72E970FB6F894DEBF0FBECDBF66
:101560007C016B015A016BDF00E213E020E0612C8B
:10157000712C88EE282E83E0382E412C512C96E8D1
:10158000892E92E0992E1C821B822D823E824F82F0
:1015900058869A8289822D87F801419151918F0155
:1015A000F701848195814817590739F4CE010196D6
:1015B0002E8775DE2E858731E9F02F5F243019F7ED
:1015C000C3012E960FB6F894DEBF0FBECDBFDF91DC
:1015D000CF911F910F91FF90EF90DF90CF90BF9030
:1015E000AF909F908F907F906F905F904F903F90C3
:1015F0002F900895A501B601CE0101962E8703DB39
:10160000680E791E2E85D9CFCF92DF92EF92FF928E
:101610000F931F93CF93DF936C017A018B01C0E08E
:10162000D0E0CE15DF0589F0D8016D918D01D6018E
:10163000ED91FC910190F081E02DC6011995892B67
:1016400011F47E0102C02196ECCFC701DF91CF914A
:101650001F910F91FF90EF90DF90CF900895FC01C4
:10166000A089B1898C91A689B78982FD0FC09C9110
:10167000818D8F5F8F73228D821749F0218DDF015D
:10168000A20FB11D5D969C93818F08958C91089552
:10169000FC01918D828D981761F0828DDF01A80F7A
:1016A000B11D5D968C91928D9F5F9F73928F90E09C
:1016B00008958FEF9FEF0895FC01918D828D98170B
:1016C00031F0828DE80FF11D858D90E008958FEF48
:1016D0009FEF0895FC01918D228D892F90E0805C11
:1016E0009F4F821B91098F739927089581E493E09E
:1016F000F1DF21E0892B09F420E0822F08958EED9F
:1017000093E0E8DF21E0892B09F420E0822F08959F
:10171000CF92DF92EF92FF921F93CF93DF93EC0172
:101720006A017B01122FE889F98982E080834115E3
:10173000514E61057105B1F060E079E08DE390E014
:10174000A70196010E947F16DA01C9010197A1093C
:10175000B109B695A79597958795AC01411580E19C
:101760005807A8F0E889F989108260E874E88EE1EA
:1017700090E0A70196010E947F16BA01A90141508D
:101780005109610971097695679557954795EC85DB
:10179000FD855083EE85FF854083188EEC89FD8999
:1017A0001083EA89FB89808180618083EA89FB89D3
:1017B000808188608083EA89FB898081806880835A
:1017C000EA89FB8980818F7D8083DF91CF911F9192
:1017D000FF90EF90DF90CF900895FC01848DDF01A2
:1017E000A80FB11DA35ABF4F2C91848D90E0019694
:1017F0008F739927848FA689B7892C93A089B18983
:101800008C9180648C93938D848D981306C002888C
:10181000F389E02D80818F7D80830895EF92FF9280
:101820000F931F93CF93DF93EC0181E0888F9B8D03
:101830008C8D981305C0E889F989808185FD23C0C6
:10184000F62E0B8D10E00F5F1F4F0F731127E02E48
:101850008C8DE8120BC00FB607FCFACFE889F98926
:10186000808185FFF5CFCE01B8DFF2CF8B8DFE01F1
:10187000E80FF11DE35AFF4FF0820B8FEA89FB89D5
:101880008081806207C0EE89FF896083E889F989D9
:1018900080818064808381E090E0DF91CF911F910F
:1018A0000F91FF90EF900895CF93DF93EC01888D17
:1018B0008823C1F0EA89FB89808185FD05C0A8895C
:1018C000B9898C9186FD0EC00FB607FCF5CF8081DB
:1018D00085FFF2CFA889B9898C9185FFEDCFCE0124
:1018E0007CDFE8CFDF91CF91089580E090E0892BF5
:1018F00019F005DF811120C080E090E0892B19F0FC
:10190000F5DE81111CC080E090E0892B41F080E081
:1019100090E0892B21F00E940000811113C080E02B
:1019200090E0892BA1F080E090E0892B81F00E946B
:10193000000081110AC008950E940000DDCF0E94BE
:101940000000E1CF0E940000EACF0C94000008954F
:10195000CF93DF93EC01898D9A8D892B41F0E8813B
:10196000F9810680F781E02DCE011995F4CFDF9142
:10197000CF9108956115710579F0FB010190002068
:10198000E9F73197AF01461B570BDC01ED91FC9154
:101990000280F381E02D199480E090E008954F9249
:1019A0005F926F927F92EF92FF920F931F93CF936C
:1019B000DF93CDB7DEB7A1970FB6F894DEBF0FBEA9
:1019C000CDBF7C01FA01CB0119A2223008F42AE034
:1019D0008E010F5D1F4F422E512C612C712CBF01C7
:1019E000A30192010E947F16F901CA010150110959
:1019F0006A3014F4605D01C0695CD8016C93232BDC
:101A0000242B252B61F7B801C701B4DFA1960FB6CF
:101A1000F894DEBF0FBECDBFDF91CF911F910F9124
:101A2000FF90EF907F906F905F904F9008958F920E
:101A30009F92AF92BF92CF92DF92EF92FF920F935D
:101A40001F93CF93DF937C01EB016C0182E0C80E02
:101A5000D11C4701E5E08E0E911C00E010E0F6017C
:101A600041916F0150E060E070E02AE0CE0197DF25
:101A70005C01E881F9810190F081E02D6EE2CE01F8
:101A800019958A0D9B1D080F191FC814D90439F721
:101A9000F701458150E060E070E02AE0CE017FDF91
:101AA000800F911FDF91CF911F910F91FF90EF90C9
:101AB000DF90CF90BF90AF909F908F9008950E943D
:101AC0006B160F931F93CF93DF93EC01888199815D
:101AD000009729F02A813B812617370788F48B016C
:101AE0006F5F7F4F0E948715009761F0998388830D
:101AF0001B830A832C813D81232B11F4FC0110826E
:101B000081E001C080E0DF91CF911F910F91089596
:101B1000EF92FF920F931F93CF93DF93EC017B0122
:101B20008A01BA01CEDF2881398181110CC02115CB
:101B3000310511F0C90153D7198218821D821C8208
:101B40001B821A8206C01D830C83B701C9010E9443
:101B50007816CE01DF91CF911F910F91FF90EF90FA
:101B60000895CF93DF931F92CDB7DEB7FC01218D8F
:101B7000328D232B49F0BE016F5F7F4F84850E9419
:101B80000405898190E002C08FEF9FEF0F90DF91F5
:101B9000CF9108953FB7F89480912D0390912E0333
:101BA000A0912F03B091300326B5A89B05C02F3F0D
:101BB00019F00196A11DB11D3FBFBA2FA92F982F73
:101BC0008827820F911DA11DB11DBC01CD0142E0EE
:101BD000660F771F881F991F4A95D1F708952FB771
:101BE000F8946091290370912A0380912B039091BE
:101BF0002C032FBF08951F920F920FB60F9211243E
:101C00002F933F938F939F93AF93BF93809129031B
:101C100090912A03A0912B03B0912C0330912803BB
:101C200023E0230F2D3720F40196A11DB11D05C01F
:101C300026E8230F0296A11DB11D2093280380934F
:101C4000290390932A03A0932B03B0932C03809134
:101C50002D0390912E03A0912F03B0913003019694
:101C6000A11DB11D80932D0390932E03A0932F03EC
:101C7000B0933003BF91AF919F918F913F912F917E
:101C80000F900FBE0F901F9018951F920F920FB6D6
:101C90000F9211240BB60F922F933F934F935F93A4
:101CA0006F937F938F939F93AF93BF93EF93FF9324
:101CB00081E493E092DDFF91EF91BF91AF919F910D
:101CC0008F917F916F915F914F913F912F910F90E5
:101CD0000BBE0F900FBE0F901F9018951F920F9282
:101CE0000FB60F9211240BB60F922F933F934F9381
:101CF0005F936F937F938F939F93AF93BF93EF9374
:101D0000FF9381E493E0ABDCFF91EF91BF91AF9142
:101D10009F918F917F916F915F914F913F912F9103
:101D20000F900BBE0F900FBE0F901F9018951F9233
:101D30000F920FB60F9211240BB60F922F933F9371
:101D40004F935F936F937F938F939F93AF93BF93C3
:101D5000EF93FF938EED93E040DDFF91EF91BF9104
:101D6000AF919F918F917F916F915F914F913F9133
:101D70002F910F900BBE0F900FBE0F901F901895D4
:101D80001F920F920FB60F9211240BB60F922F9342
:101D90003F934F935F936F937F938F939F93AF93F3
:101DA000BF93EF93FF938EED93E059DCFF91EF919A
:101DB000BF91AF919F918F917F916F915F914F9163
:101DC0003F912F910F900BBE0F900FBE0F901F9061
:101DD000189590E0FC01E853FE4F2491FC01EE576A
:101DE000FE4F8491882399F090E0880F991FFC01A1
:101DF000E859FE4FA591B491FC01E25BFE4F85913D
:101E000094918FB7F894EC91E22BEC938FBF0895E7
:101E1000CF93C82F462F61E070E00E94AB0461E0D1
:101E200070E08C2F0E94B4048111F9CFCF910895F6
:101E3000FF920F931F93CF93DF931F92CDB7DEB71F
:101E4000F82E8A0169830E94F30580E590E00E94E4
:101E500001056981462F60E070E08F2D0E94AB0480
:101E60000115110551F400919004109191040F5F38
:101E70001F4F1093910400939004412F64E070E091
:101E80008F2D0E94AB04402F65E070E08F2D0E94E3
:101E9000AB0461E070E08F2DBBDF0E94000581E0A4
:101EA0000F90DF91CF911F910F91FF900895AF9206
:101EB000BF92CF92DF92EF92FF920F931F93CF9337
:101EC000DF931F921F92CDB7DEB77A836983BA0181
:101ED000A901E981FA81F770082F10E0000F111FA6
:101EE000075C1C4FD8018D919C918E0F9F1F2E0F68
:101EF0003F1F2130384098F07A015B0120E038E044
:101F00006901CE1ADF0AA6010E943B04A7014C1901
:101F10005D09B5016C0D7D1DF801808191810F90E7
:101F20000F90DF91CF911F910F91FF90EF90DF9075
:101F3000CF90BF90AF900C943B049F92AF92BF9212
:101F4000CF92DF92EF92FF920F931F93CF93DF9385
:101F5000982E8B015A01690164E270E00E94B4047A
:101F6000E82EF12C65E270E0892D0E94B404FE2C6D
:101F7000EE24E82AE701C00FD11F9E013770E92C3B
:101F8000F12CC701880F991FAC014F5C5C4F7A019F
:101F9000FA0180819181820F931FA9014C0D5D1D73
:101FA0004130584090F000E018E0021B130BA801EC
:101FB000B5010E946504A601401B510BB501600FDD
:101FC000711FF7018081918102C0A601B5010E94B5
:101FD0006504CC0DDD1D4D2F64E270E0892D0E945B
:101FE000AB044C2F65E270E0892DDF91CF911F91FA
:101FF0000F91FF90EF90DF90CF90BF90AF909F90A8
:102000000C94AB04FF920F931F93CF93DF93F82EA2
:10201000C0E0D0E08F2D0E94EA048C01892B21F0D2
:102020008F2D0E94EA04EC01C017D10799F7CE0169
:10203000DF91CF911F910F91FF9008958F929F9202
:10204000AF92BF92CF92DF92EF92FF926B017C0131
:10205000A1DD4B015C01C114D104E104F104E9F0FC
:1020600099DDDC01CB0188199909AA09BB09883ED1
:102070009340A105B10578F321E0C21AD108E10827
:10208000F10888EE880E83E0981EA11CB11CC114D3
:10209000D104E104F10421F7DECFFF90EF90DF904F
:1020A000CF90BF90AF909F908F900895CF92DF9286
:1020B000EF92FF921F93CF93DF93CDB7DEB7689770
:1020C0000FB6F894DEBF0FBECDBFFA012CED32E0A3
:1020D0003A8329835FEF5B835C835D831E8238874D
:1020E0002F83C280D380E480F580C986DA86EB86B0
:1020F000FC86FB0142815381648175814F87588B37
:10210000698B7A8B3C8B2B8BFC0182819381A48120
:10211000B5818D8B9E8BAF8BB88F6CE271E080E0C8
:1021200090E08CDF1FB7F89480918F0481118FC0ED
:1021300067EB71E0FB0184912DEF31E0F9014491EF
:1021400090E0880F991F88599E4FFC01A591B4918A
:102150008C91482309F06FC0EDE3F1E04491F9015F
:102160002491FB019491992309F465C0442309F457
:1021700054C050E0FA013197E231F10508F04DC04A
:102180008827EE58FF4F8F4F8DC3809180008F7747
:1021900007C0809180008F7D03C080918000877F81
:1021A000809380003AC084B58F7702C084B58F7D5C
:1021B00084BD33C08091B0008F7703C08091B000A0
:1021C0008F7D8093B00029C0809190008F7707C0E9
:1021D000809190008F7D03C080919000877F8093D5
:1021E00090001BC08091A0008F7707C08091A00055
:1021F0008F7D03C08091A000877F8093A0000DC0D9
:10220000809120018F7707C0809120018F7D03C0CE
:1022100080912001877F80932001E92FF0E0EE0F6D
:10222000FF1FE25BFE4FA591B4918FB7F8949C918C
:10223000292B2C938FBF85E3CCDD8CB580618CBDC1
:102240008CB580648CBD84E3C4DD83E3C2DD809102
:102250008F048F5F80938F041FBF249A80E590E0E6
:102260000E94010560E880E090E00E948E0465E530
:102270008BE190E00E948E0465E58AE190E00E9487
:102280008E040E94000580E090E4909332038093D6
:10229000310380E090E690933A038093390380E025
:1022A00098E4909334038093330380E098E690930E
:1022B0003C0380933B0380E090E59093360380934A
:1022C000350380E090E790933E0380933D0380E0E8
:1022D00098E5909338038093370380E098E79093D4
:1022E000400380933F0380E590E00E94010546E0B3
:1022F00050E06EE072E089E090E00E94650444E006
:1023000050E0BE016B5E7F4F8FE090E00E9465045D
:1023100044E050E0BE01675F7F4F81E090E00E94A3
:10232000650444E050E0BE016D5F7F4F85E090E0C2
:102330000E9465040E9400058F859889A989BA8941
:1023400080937D0490937E04A0937F04B0938004D7
:1023500068960FB6F894DEBF0FBECDBFDF91CF9168
:102360001F91FF90EF90DF90CF900895CF93DF9370
:10237000CDB7DEB7A0970FB6F894DEBF0FBECDBFC6
:10238000789484B5826084BD84B5816084BD85B550
:10239000826085BD85B5816085BD80916E0081605C
:1023A00080936E0010928100809181008260809302
:1023B0008100809181008160809381008091800004
:1023C0008160809380008091B10084608093B1002F
:1023D0008091B00081608093B00080919100826014
:1023E0008093910080919100816080939100809111
:1023F00090008160809390008091A1008260809322
:10240000A1008091A10081608093A1008091A00033
:1024100081608093A00080912101826080932101DE
:102420008091210181608093210180912001816050
:102430008093200180917A00846080937A0080915B
:102440007A00826080937A0080917A008160809324
:102450007A0080917A00806880937A001092C1009F
:1024600062EE74E080E090E0E9DD26E040E855E2CD
:1024700060E070E081E493E04BD926E040E855E26B
:1024800060E070E08EED93E043D90CED12E01A832A
:10249000098380910A0290910B02A0910C02B091E5
:1024A0000D028B839C83AD83BE831F870E87809133
:1024B000060290910702A0910802B0910902888B50
:1024C000998BAA8BBB8B1C8F0B8F809102029091F2
:1024D0000302A0910402B09105028D8F9E8FAF8FF1
:1024E000B8A3AE014F5F5F4FBE01625F7F4FCE0169
:1024F0004B96DCDD89E894E00E94560964EE72E0B8
:102500008EED93E037DA6AEF70E080E090E096DDE0
:1025100067EE72E08EED93E02DDA64EE72E08EED00
:1025200093E028DA6AEC78E080E090E087DD66EFFF
:1025300072E08EED93E01EDA1A8309831B821C82FF
:102540001D821E8280E590E00E94010544E050E07B
:10255000BE016D5F7F4F8FE090E00E943B040E94C0
:1025600000056EED73E0CE01019661DA64EE72E073
:102570008EED93E0FFD964EE72E08EED93E0FAD930
:1025800063E073E08EED93E0F5D964EE72E08EEDDA
:1025900093E0F0D998EE892E93E0992EA12CB12CDE
:1025A00026E8E22E22E0F22E89E894E00E941F0A3B
:1025B00080E2C82E83E0D82E10E01C821B828D8220
:1025C0009E82AF82B886FA82E9821D87F601219148
:1025D00031916F0180918D0490918E0428173907F5
:1025E00039F5CE0101960E944F09873111F08C31E7
:1025F000F9F4CE0101960E946905892BC9F08B81FF
:102600009C81998B888B8D819E81AF81B8858A8BC7
:102610009B8BAC8BBD8B89859A85AB85BC858E8B5E
:102620009F8BA88FB98FFF86EE868D858A8F0CC011
:102630001F5F143011F6198A188A8A8A9B8AAC8A1D
:10264000BD8AFF86EE861A8F8A8D843009F47FC09A
:102650001A8219821C821B821E821D8240E050E079
:1026600066EE72E0CE01019653DACE010E960E941C
:10267000BC09882309F468C0CE010E960E94690542
:10268000892B09F43EC0CE010E960E94DA05D82EA1
:102690008B8F1C8E0D811E810F5F1F4FB801CE01E5
:1026A00001960FDA882361F029813A818D819E811C
:1026B000BE01655E7F4F820F931F1AD31E830D8369
:1026C000FAE0DF12D9CF4D815E8169817A8181E4A0
:1026D00093E00E94040B4D815E8169817A818EEDC9
:1026E00093E00E94040B40E050E066EE72E0CE0101
:1026F00001960EDA81E493E0D7D88EED93E0D4D83A
:10270000BBCF81E493E00E946A0B1816190654F4BB
:1027100081E493E00E94480B682FCE010E960E9440
:102720003A01EFCF8EED93E00E946A0B181619065E
:102730000CF09BCF8EED93E00E94480B682FCE01EA
:102740000E960E943A01EECF89819A8148D1CDD868
:102750002BCFE2E9F4E08CED92E09183808312824A
:10276000138214821582E1E4F3E01382128248EEB0
:1027700053E060E070E044835583668377832AEA00
:1027800032E031832083ADECB0E0B587A487ACECB8
:10279000B0E0B787A687A8ECB0E0B18BA08BA9EC1E
:1027A000B0E0B38BA28BAAECB0E0B58BA48BAEECFF
:1027B000B0E0B78BA68B118E128E138E148EEEEDB9
:1027C000F3E01382128244835583668377833183D7
:1027D000208325EC30E03587248724EC30E03787F0
:1027E000268720EC30E0318B208B21EC30E0338BDE
:1027F000228B22EC30E0358B248B26EC30E0378BBB
:10280000268B118E128E138E148EE8E9F4E09183DC
:1028100080831282138214821582EEE9F4E09183A0
:1028200080831282138214821582E4EAF4E0918399
:1028300080831282138214821582EAEAF4E0918383
:1028400080831282138214821582EBE7F4E0918375
:1028500080831282138214821582E3E8F4E091836C
:1028600080831282138214821582E0EBF4E091835C
:1028700080831282138214821582E6EBF4E0918346
:1028800080831282138214821582E9E8F4E01382B5
:1028900012828AEC92E09183808388EB92E29583A6
:1028A00084830895EE0FFF1F881F8BBF0790F6915A
:1028B000E02D1994CF93DF938230910510F482E0DC
:1028C00090E0E091BE04F091BF0420E030E0C0E071
:1028D000D0E0309711F14081518148175907C0F07D
:1028E0004817590761F482819381209719F09B83DF
:1028F0008A832BC09093BF048093BE0426C0211509
:10290000310519F04217530718F49A01BE01DF018F
:10291000EF010280F381E02DDCCF2115310509F1B3
:10292000281B390B2430310590F412968D919C911F
:1029300013976115710521F0FB019383828304C015
:102940009093BF048093BE04FD01329644C0FD0104
:10295000E20FF31F81939193225031092D933C9301
:102960003AC02091BC043091BD04232B41F4209146
:102970001602309117023093BD042093BC042091BD
:102980001402309115022115310541F42DB73EB7DF
:102990004091180250911902241B350BE091BC04A0
:1029A000F091BD04E217F307A0F42E1B3F0B28178C
:1029B000390778F0AC014E5F5F4F2417350748F0B8
:1029C0004E0F5F1F5093BD044093BC0481939193BD
:1029D00002C0E0E0F0E0CF01DF91CF9108950F93C6
:1029E0001F93CF93DF93009709F48CC0FC013297BB
:1029F000138212820091BE041091BF0401151105CB
:102A000081F420813181820F931F2091BC04309189
:102A1000BD042817390779F5F093BD04E093BC0491
:102A200071C0D80140E050E0AE17BF0750F41296D5
:102A30002D913C911397AD012115310509F1D90173
:102A4000F3CF9D01DA013383228360817181860F88
:102A5000971F8217930769F4EC0128813981260FAB
:102A6000371F2E5F3F4F318320838A819B81938361
:102A70008283452B29F4F093BF04E093BE0442C047
:102A80001396FC93EE931297ED01499159919E0193
:102A9000240F351FE217F30771F480819181840FB1
:102AA000951F029611969C938E9382819381139623
:102AB0009C938E931297E0E0F0E0D80112968D91EE
:102AC0009C911397009719F0F8018C01F6CF8D9126
:102AD0009C9198012E5F3F4F820F931F2091BC0461
:102AE0003091BD042817390769F4309729F4109202
:102AF000BF041092BE0402C0138212821093BD0460
:102B00000093BC04DF91CF911F910F9108956F92B4
:102B10007F928F929F92AF92BF92CF92DF92EF926D
:102B2000FF920F931F93CF93DF93EC01009781F4F3
:102B3000CB01DF91CF911F910F91FF90EF90DF902C
:102B4000CF90BF90AF909F908F907F906F90B2CEBC
:102B5000FC01E60FF71F9C0122503109E217F30731
:102B600008F4A8C0D9010D911C91119706171707F9
:102B7000A8F00530110508F49BC0C801049786171A
:102B8000970708F495C002501109061B170B019313
:102B900011936D937C93CF0122DF8AC05B01A01A51
:102BA000B10A4C01800E911EA091BE04B091BF04E9
:102BB00040E050E0E12CF12C109709F44AC0A81530
:102BC000B905D1F56D907C901197630182E0C80E34
:102BD000D11CCA14DB0480F1A3014A195B096A0104
:102BE00082E0C80ED11C1296BC9012971396AC913D
:102BF000B5E0CB16D10440F0B282A3835183408369
:102C0000D9016D937C930AC00E5F1F4FC301800FE3
:102C1000911FF90191838083EB2DFA2FE114F104C8
:102C200031F0D7011396FC93EE93129741C0F093C5
:102C3000BF04E093BE043CC08D919C91119748174E
:102C4000590708F4AC017D0112960D90BC91A02D9E
:102C5000B3CF8091BC049091BD0488159905E1F42F
:102C600046175707C8F480911402909115020097F7
:102C700041F48DB79EB74091180250911902841B00
:102C8000950BE817F907B0F4F093BD04E093BC048A
:102C9000F901718360830CC0CB010CDE7C010097CD
:102CA00049F0A801BE011BD0CE0199DEC70104C0C6
:102CB000CE0102C080E090E0DF91CF911F910F9193
:102CC000FF90EF90DF90CF90BF90AF909F908F904C
:102CD0007F906F90089581E090E0F89432C0FB01FE
:102CE000DC0102C001900D9241505040D8F7089588
:102CF000FB01DC0101900D920020E1F70895A1E2B3
:102D00001A2EAA1BBB1BFD010DC0AA1FBB1FEE1F65
:102D1000FF1FA217B307E407F50720F0A21BB30BB0
:102D2000E40BF50B661F771F881F991F1A9469F72C
:102D300060957095809590959B01AC01BD01CF0188
:062D40000895F894FFCF96
:102D460000C0C0A80046C0A80001FFFFFF00DE0DBE
:102D5600BEEFFEED0000C004800001000000000090
:102D660000005F0D5F0D5F0D5F0D5F0D5F0D5F0D69
:102D76005F0D5F0D5F0D5F0D5F0D5F0D5F0D5F0DED
:102D86005F0D000000000907FF071F078607B10D4A
:102D9600A80C2509110960089F083208AE076807C4
:102DA600370727072307000000005F0D5F0D5F0D43
:102DB6005F0D5F0D5F0D5F0D5F0D5F0D5F0D5F0DAD
:102DC6005F0D000000003A0103066905DA052A05D1
:102DD60067077906C903D705DF09BC095F075C01E8
:102DE6005A0154075001000000000E0C040B6A0B38
:102DF600480B5C0B540C000000005F0D040B5F0DCC
:102E06005F0D5F0D5F0D000000003E07960A560934
:102E1600000000005F0D040B00000000170D00000D
:102E260000005F0D0D0A00496E697469616C697A6C
:102E3600696E672E2E004950206164647265737353
:102E46003A2000426F6F7465642073797374656D00
:102E5600207375636365737366756C6C7921000006
:00000001FF
